:100000000C94F1070C94120E0C94EB0D0C9419083F
:100010000C9419080C9419080C9419080C94561592
:100020000C9419080C9419080C9419080C94EF14EA
:100030000C9419080C9419080C9419080C941908BC
:100040000C94A10D0C9419080C9463090C943D09AF
:100050000C9419080C9419080C9419080C9419089C
:100060000C9419080C9419080000000024002700C3
:100070002A0000000000250028002B0000000000DE
:1000800023002600290004040404040404040202DA
:100090000202020203030303030301020408102007
:1000A0004080010204081020010204081020000012
:1000B0000008000201000003040700000000000027
:1000C0000000636C692E73746172740D00636C6957
:1000D0002E73746F700D00636C692E707265760DEF
:1000E00000636C692E766F6C2B0D00636C692E7348
:1000F000746F700D00636C692E73746172740D00FF
:1001000022290D00636C692E706C617928220063CE
:100110006C692E766F6C2D0D00636C692E6E6578A0
:10012000740D00636C692E696E666F0D0022290DD7
:10013000000D7379732E747A6F2822007379732EF1
:10014000646174650D0001060A00FE07013602684D
:1001500020FFFE08FE07FE0A0060221767808080ED
:1001600080800080163363A0A0A00257675050F82B
:1001700050F850500257672070A070287020025726
:100180006748A8502050A89002576740A0A040A8F8
:1001900090682613638080801237672040808080BB
:1001A000402012376780402020204080035565881A
:1001B00050F850880355652020F8202011336360E3
:1001C0004080055161F811336340E04002576708F1
:1001D000081020408080025767205088888850206F
:1001E0000257672060A0202020F802576770880817
:1001F000304080F8025767F80810300888700257BE
:100200006710305090F81010025767F880B0C80897
:100210008870025767304080B0C88870025767F80E
:1002200008101020404002576770888870888870D6
:100230000257677088986808106011376740E0407F
:100240000040E04011376740E040006040801247C6
:100250006710204080402010045363F800F81247D4
:10026000678040201020408002576770881020204F
:100270000020025767708898A8B0807002576720E6
:10028000508888F88888025767F04848704848F0D6
:1002900002576770888080808870025767F04848EE
:1002A000484848F0025767F88080F08080F802578D
:1002B00067F88080F080808002576770888080981F
:1002C0008870025767888888F8888888123767E0BE
:1002D0004040404040E002576738101010109060D6
:1002E0000257678890A0C0A09088025767808080DE
:1002F000808080F80257678888D8A8888888025745
:10030000678888C8A898888802576770888888880E
:100310008870025767F08888F08080800158687084
:1003200088888888A87008025767F08888F0A090AD
:100330008802576770888070088870025767F820B5
:1003400020202020200257678888888888887002AB
:10035000576788888850505020025767888888A837
:10036000A8D8880257678888502050888802576725
:1003700088885020202020025767F80810204080ED
:10038000F8123767E08080808080E00257678080C5
:100390004020100808123767E02020202020E006C7
:1003A0005363205088015161F82822628040025531
:1003B0006570087888780257678080B0C888C8B0B0
:1003C00002556570888088700257670808689888A9
:1003D00098680255657088F8807002576730484009
:1003E000F040404000576778888878088870025746
:1003F000678080B0C88888881237674000C0404056
:1004000040E01049691000301010109090600257C1
:100410006780808890E09088123767C040404040F5
:1004200040E0025565D0A8A8A888025565B0C888E4
:1004300088880255657088888870005767B0C888BA
:10044000C8B0808000576768988898680808025587
:1004500065B0C880808002556570807008F00257D2
:10046000674040F040404830025565888888986869
:1004700002556588885050200255658888A8A85084
:10048000025565885020508800576788889868080A
:100490008870025565F8102040F8124767304020F8
:1004A000C020403022176780808080808080124783
:1004B00067C02040304020C006536348A890FFFF2B
:1004C000FFFFFFFFFFFFFFFFFFFFFFFFFFFFFFFF3C
:1004D000FFFFFFFFFFFFFFFFFFFFFFFFFFFFFF0A21
:1004E000006022176780008080808080015767202D
:1004F00078A0A0A07820025767304840E04048B07C
:10050000025565887050708801586888885020F8B6
:10051000202020221767808080008080800158681A
:100520007080E09048380870193161A002576770F8
:1005300088A8C8A888701346667090B05000F00272
:1005400065652448904824144262F010154161F01A
:100550000257677088E8C8C88870095161F8163377
:100560006340A0400256662020F82020F81545651B
:1005700060902040F0154565E0106010E028226290
:100580004080015666888888C8B08002576778E83E
:10059000E8682828282511618020226240801535CE
:1005A0006540C04040E01346666090906000F002F5
:1005B0006565904824489001696940C04040E40C5A
:1005C000143C0401696940C04040E81404081C015F
:1005D0005969C0204020C8182878080257672000B1
:1005E00020204088700258684020708888F88888E9
:1005F0000258681020708888F8888802586820504F
:10060000708888F8888802586848B0708888F888A8
:10061000880258685000708888F8888802586820D6
:1006200050708888F888880267673C50909CF090EA
:100630009C005969708880808088702040025868CA
:1006400040F88080F08080F802586810F88080F0D0
:100650008080F802586820F88080F08080F8025886
:100660006850F88080F08080F81238688040E04060
:10067000404040E01238682040E040404040E012F6
:10068000386840A0E040404040E0123868A000E0F8
:1006900040404040E0025767F04848E84848F002D0
:1006A0005868285088C8A8988888025868402070E0
:1006B00088888888700258681020708888888870B8
:1006C00002586820507088888888700258682850BE
:1006D0007088888888700258685000708888888878
:1006E000700255658850205088025767709898A806
:1006F000C8C8700258684020888888888870025866
:10070000681020888888888870025868205000887F
:1007100088888870025868500088888888887002A5
:100720005868102088885020202002576780F08861
:10073000F0808080025767708890A09088B002583F
:10074000684020007008788878025868102000708F
:1007500008788878025868205000700878887802F5
:1007600058682850007008788878025767500070E1
:1007700008788878025868205020700878887802B5
:10078000656578147C907C0057677088808870203D
:10079000400258684020007088F880700258681045
:1007A00020007088F880700258682050007088F827
:1007B000807002576750007088F880701238688027
:1007C0004000C0404040E0123868408000C04040D7
:1007D00040E012386840A000C0404040E012376757
:1007E000A000C0404040E0025767C0307088888851
:1007F00070025868285000B0C8888888025868403D
:1008000020007088888870025868102000708888DE
:100810008870025868205000708888887002586874
:100820002850007088888870025767500070888848
:1008300088700355652000F800200255657898A857
:10084000C8F0025868402000888888986802586874
:10085000102000888888986802586820500088888E
:100860008898680257675000888888986800596996
:1008700010208888986808887000586880F08888F8
:1008800088F08080005969500088889868088870CE
:1008900001050800FF060121023520FFFF07FF06C2
:1008A000FF09005022165680808080008015335347
:1008B000A0A0A00257575050F850F8505002575778
:1008C0002070A07028702013355580A040A0200211
:1008D000475740A0A040A0A050251353808080120D
:1008E00026564080808080401226568040404040FE
:1008F000800245559060F060900255552020F82008
:1009000020113353604080044151F011335340E0D3
:100910004002465610102040808012365640A0A05B
:10092000A0A04012365640C0404040E0024656600B
:1009300090106080F0024656F020601090600246F1
:10094000562060A0F02020024656F080E010906013
:100950000246566080E0909060024656F0102020DB
:10096000404002465660906090906002465660900B
:1009700090701060122555C0C000C0C0113656607E
:100980006000604080123656204080804020034343
:1009900053F000F012365680402020408012365628
:1009A00040A020400040015858304898A8A89040E6
:1009B00030024656609090F09090024656E090E0EB
:1009C0009090E0024656609080809060024656E02B
:1009D00090909090E0024656F080E08080F00246D1
:1009E00056F080E0808080024656609080B0906033
:1009F0000246569090F0909090123656E04040405B
:100A000040E002465670202020A04002465690A0AA
:100A1000C0A0A0900246568080808080F00246569A
:100A200090F0F090909002465690D0F0B0B09002C6
:100A30004656609090909060024656E09090E0801C
:100A400080014757609090D0B06010024656E09009
:100A500090E090900246566090402090601236568A
:100A6000E040404040400246569090909090600296
:100A70004656909090906060024656909090F0F0AC
:100A8000900246569090606090900256568888502A
:100A9000202020024656F010204080F0123656E00A
:100AA00080808080E0024656808040201010123600
:100AB00056E020202020E016325240A0014151F0A3
:100AC0001622528040024454709090700246568024
:100AD00080E09090E01234546080806002465610AE
:100AE000107090907002445460B0C060024656206E
:100AF0005040E040400145556090701060024656FD
:100B00008080E09090901236564000C04040E01146
:100B100037572000202020A040024656808090E0D9
:100B20009090123656C040404040E0025454D0A845
:100B3000A8A8024454E090909002445460909060C1
:100B4000014555E090E0808001455570907010108F
:100B5000024454A0D0808012345460C020C00246A9
:100B6000564040E04050200244549090907012341F
:100B700054A0A0A04002545488A8A8500244549005
:100B80006060900145559090709060024454F02050
:100B900040F0024757304020C02040302216568097
:100BA0008080808080024757C02040304020C006AF
:100BB000425250A0FFFFFFFFFFFFFFFFFFFFFFFFBD
:100BC000FFFFFFFFFFFFFFFFFFFFFFFFFFFFFFFF35
:100BD000FFFFFFFFFF090050221656800080808033
:100BE000800146562070A0A070200246562050E09A
:100BF0004050A00255558870507088025656885053
:100C0000F820F820221757808080008080800247DB
:100C1000577080E0907010E0173151A00256567066
:100C2000A8C8C8A87014355560A06000E0034353FD
:100C300050A050123353E02020143151E002565698
:100C400070E8D8E8D870173151E015335340A04010
:100C500012355540E04000E014355540A02040E0FA
:100C6000143555C020C020C0162252408001455581
:100C7000909090E08002565678E8E8682828241181
:100C80005180112252408014355540C04040E0143C
:100C9000355540A04000E0034353A050A002475701
:100CA000808080A060F0200247578080A0D0102074
:100CB0007002475780408060A0F0201236564000F6
:100CC0004080A04002475740206090F0909002473B
:100CD0005720406090F0909002475760906090F0ED
:100CE000909002475750A06090F090900247579024
:100CF000006090F0909002475760906090F0909064
:100D000002465670A0A0F0A0B001475760908080C6
:100D10009060400247574020F080E080F002475743
:100D20002040F080E080F00247576090F080E08043
:100D3000F00247579000F080E080F0123757804073
:100D4000E0404040E01237572040E0404040E01291
:100D5000375740A0E0404040E0123757A000E04045
:100D60004040E00256567048E848487002475750E5
:100D7000A090D0B090900247574020609090906033
:100D80000247572040609090906002475760906003
:100D90009090906002475750A060909090600247FA
:100DA0005790006090909060123353A040A002468C
:100DB0005670B0B0D0D0E00247574020909090904D
:100DC0006002475720409090909060024757609093
:100DD00090909090600247579000909090906002A1
:100DE00057571020885020202002465680E09090CF
:100DF000E0800246566090A0A090A0024757402095
:100E000000709090700247572040007090907002E0
:100E100047572050007090907002475750A00070C4
:100E20009090700246565000709090700247576044
:100E3000906070909070025454F068B078113555FD
:100E4000608080604002475740200060B0C0600270
:100E5000475720400060B0C0600247576090006074
:100E6000B0C060024656500060B0C0601237578074
:100E70004000C04040E0123757204000C04040E0F2
:100E800012375740A000C04040E0123656A000C0C4
:100E90004040E0024757A040A010709060024757C2
:100EA00050A000E090909002475740200060909042
:100EB0006002475720400060909060024757609062
:100EC000006090906002475750A0006090906002D0
:100ED00046569000609090601235554000E000400A
:100EE00002445470B0D0E0024757402000909090E8
:100EF00070024757204000909090700247576090D2
:100F0000009090907002465690009090907001482A
:100F10005820400090907090600147578080E0908A
:100F2000E0808001475790009090709060FFE0FF54
:100F3000D1AFFF32FFD0FFFEFFE0FFD1AEFFD0FF09
:100F4000FEFFE0FFD11000FFFEFFD0FFE0FFC1FF7A
:100F5000D1AED580A83FD300408D142000A1C8DABF
:100F60001281CFD9F1DB402EA4A6AFFFD0FFFE6FD8
:100F7000766572666C6F7700202D200053544F50B9
:100F80005045440059494E4723004D45534554238D
:100F90003A200053746174696F6E2049703A2000E2
:100FA00053544F505045440053544F505045440003
:100FB00049435930233A200049435934233A200009
:100FC0004D455441233A20005653205665727369AB
:100FD0006F6E006364696E6F70737578585B0000A4
:100FE000682411241FBECFEFD8E0DEBFCDBF12E0D2
:100FF000A0E0B1E0E8E1FDE502C005900D92A0336C
:10100000B107D9F727E0A0E3B2E001C01D92A73DE8
:10101000B207E1F717E0C1EFD7E004C02197FE0166
:101020000E947325C03FD107C9F70E94751F0C9419
:101030008A2E0C940000CF92DF92EF92FF920F93D2
:101040001F93CF93DF936C017A018B01C0E0D0E056
:10105000CE15DF0589F0D8016D918D01D601ED9196
:10106000FC910190F081E02DC6010995892B11F4C6
:101070007E0102C02196ECCFC701DF91CF911F9175
:101080000F91FF90EF90DF90CF900895FC01918D2C
:10109000828D981761F0828DDF01A80FB11D5D96DA
:1010A0008C91928D9F5F9F73928F90E008958FEF48
:1010B0009FEF0895FC01918D828D981731F0828DFC
:1010C000E80FF11D858D90E008958FEF9FEF089553
:1010D000FC01918D228D892F90E0805C9F4F821BB7
:1010E00091098F73992708958EE595E00E9468080D
:1010F00021E0892B09F420E0822F0895FC01848DE2
:10110000DF01A80FB11DA35ABF4F2C91848D90E031
:1011100001968F739927848FA689B7892C93A0890C
:10112000B1898C9180648C93938D848D981306C0C3
:101130000288F389E02D80818F7D80830895EF926E
:10114000FF920F931F93CF93DF93EC0181E0888F81
:101150009B8D8C8D981305C0E889F989808185FD68
:1011600024C0F62E0B8D10E00F5F1F4F0F73112759
:10117000E02E8C8DE8120CC00FB607FCFACFE88980
:10118000F989808185FFF5CFCE010E947E08F1CFDD
:101190008B8DFE01E80FF11DE35AFF4FF0820B8F9C
:1011A000EA89FB898081806207C0EE89FF896083BC
:1011B000E889F98980818064808381E090E0DF9113
:1011C000CF911F910F91FF90EF900895CF93DF93F0
:1011D000EC01888D8823C9F0EA89FB89808185FD2F
:1011E00005C0A889B9898C9186FD0FC00FB607FC90
:1011F000F5CF808185FFF2CFA889B9898C9185FFD1
:10120000EDCFCE010E947E08E7CFDF91CF91089508
:1012100080E090E0892B29F00E94740881110C94E1
:1012200000000895833081F028F4813099F08230F5
:10123000A1F008958730A9F08830B9F08430D1F456
:10124000809180008F7D03C0809180008F77809394
:101250008000089584B58F7702C084B58F7D84BDEA
:1012600008958091B0008F7703C08091B0008F7D8A
:101270008093B00008950E9410271F920F920FB61E
:101280000F9211242F933F934F935F936F937F930C
:101290008F939F93AF93BF93EF93FF938EE595E06A
:1012A0000E947E08FF91EF91BF91AF919F918F9126
:1012B0007F916F915F914F913F912F910F900FBE52
:1012C0000F901F9018951F920F920FB60F92112436
:1012D0002F938F939F93EF93FF93E0916E05F0917F
:1012E0006F058081E0917405F091750582FD12C053
:1012F0009081809177058F5F8F7320917805821799
:1013000051F0E0917705F0E0E25AFA4F958F809323
:10131000770501C08081FF91EF919F918F912F916F
:101320000F900FBE0F901F901895CF93DF93282F2B
:1013300030E0F901E255FF4F8491F901E656FF4F85
:10134000D491F901EA57FF4FC491CC2391F0811158
:101350000E941209EC2FF0E0EE0FFF1FE458FF4F40
:10136000A591B491EC91ED2381E090E021F480E02F
:1013700002C080E090E0DF91CF9108951F93CF935A
:10138000DF93282F30E0F901E255FF4F8491F901F6
:10139000E656FF4FD491F901EA57FF4FC491CC2391
:1013A000C9F0162F81110E941209EC2FF0E0EE0F08
:1013B000FF1FEE58FF4FA591B4918FB7F89411110C
:1013C00005C09C91ED2FE095E92302C0EC91ED2B37
:1013D000EC938FBFDF91CF911F910895CF93DF934F
:1013E00090E0FC01E656FF4F2491FC01EA57FF4FC5
:1013F0008491882361F190E0880F991FFC01E859DE
:10140000FF4FC591D491FC01EE58FF4FA591B491C7
:10141000611109C09FB7F894888120958223888341
:10142000EC912E230BC0623061F49FB7F8943881A1
:10143000822F809583238883EC912E2B2C939FBF42
:1014400006C08FB7F894E8812E2B28838FBFDF91D9
:10145000CF9108950895EBEFF5E01782118684E0AF
:101460008093D5060895DC011496EC91E23070F477
:10147000E13011F0E89801C0E998F0E0EE0FFF1FAD
:10148000E95FFE4F2AE23AE0318320830C942B0A75
:10149000FC01128213821482158216821086178232
:1014A00011860895DC011B96ED91FC911C97149612
:1014B0008D919C911597481B590B4770552781E0DA
:1014C00090E001C0880F4A95EAF7E60FF71F3081D8
:1014D000222311F0832B02C08095832380830895FB
:1014E000FB0142815381DC0114962D913C911597AB
:1014F0004217530798F016962D913C911797241791
:10150000350760F06081718119962D913C911A9791
:101510006217730718F426810C94520A08952EE975
:101520003FE0009729F0F9013197F1F70197F9CFE2
:101530000895DB011496ED91FC91159720E030E0C1
:1015400065E00994DB011496ED91FC91159720E07C
:1015500030E062E00994DB011496ED91FC9115975F
:1015600020E030E063E00994CF92DF92EF92FF92A7
:101570000F931F93CF93DF938C017B016A0180E06F
:10158000F601C49181110BC0CF3F09F44CC04C2F20
:10159000B701C8010E94990A811143C049C0CF3FD9
:1015A00011F44FEFF5CFCE3F09F444C0C03FC8F56A
:1015B000C03E38F04C2F4F70B701C8010E94A20AFC
:1015C00030C0C03D38F04C2F4F70B701C8010E94A9
:1015D000AB0A27C0C03CF8F0D7011496ED91FC91FE
:1015E000159720E030E040E064E0C8010995C2951D
:1015F000C07FCE5FD0E0CE010E948F0AD701149643
:10160000ED91FC91159720E030E041E064E0C801E5
:101610000995CE0104C0C7FD04C08C2F90E00E9444
:101620008F0A80E001C081E0BFEFCB1ADB0AA8CFB0
:1016300080E001C081E0DF91CF911F910F91FF9079
:10164000EF90DF90CF900895089562E08091FB05C0
:101650000E94EE091092CD0681E08093D50610928B
:1016600040020895AF92BF92CF92DF92EF92FF9225
:101670000F931F93CF93DF936C018B01F42EE9013D
:1016800080E1481709F468C08417F8F0AAE04A1707
:1016900021F1BFE04B136AC041E0C6010E94AB0AD2
:1016A00040E0B801C6010E94A20A41E8B801C601A3
:1016B0000E94990A4881B801C6010E94990A40E037
:1016C000B801C6010E94AB0A1FC1E1E14E1709F43F
:1016D00046C0F5E14F1799F049C0DB011496ED9132
:1016E000FC91159720E030E042E061E0C6010995E9
:1016F00049E45FE0B801C6010E94B40A37C0FB01AB
:10170000A280B38041E45FE0C6010E94B40AD50123
:1017100018964C91406BB801C6010E94990A41E0AD
:10172000B801C6010E94A20AF50123853485D801BB
:101730001496ED91FC911597D50119964C9166E0A0
:10174000C6010995811102C080E0DFC040E0B80108
:10175000C6010E94AB0A0AC048E35FE002C04DE246
:101760005FE0B801C6010E94B40ACEC0F801028150
:101770001381F2E3FF1609F488C0FF15B8F085E184
:10178000F81609F48FC0A7E1FA1609F4A1C0B4E174
:10179000FB12BAC0D8011B96ED91FC911C971996CB
:1017A0008D919C911A978E0F9F1F74C0E6E4FE16D0
:1017B00009F49FC0F7E4FF1609F4A1C08BE3F81207
:1017C000A3C08A819B812D81213029F0233039F4F7
:1017D000BC01089705C0BC01685F7F4F01C0BC0118
:1017E00031E0D80116964D915C911797481759072B
:1017F00008F430E041E0D8011496ED91FC91159782
:101800006E177F0708F440E051E06817790708F089
:1018100050E0832F852B482319F4352309F474C035
:10182000BC80213079F040F0223081F02330A1F4E7
:10183000CC24CA94DC2C12C0C12CD12CEE24E3940D
:10184000F12C0EC0CC24C394D12C08C0C12CD12CB7
:10185000EE24EA94FE2C04C0C12CD12CE12CF12CF6
:10186000B7FE04C0BE01C8010E94700A8881998138
:101870008E0D9F1D998388838A819B818C0D9D1D70
:101880009B838A83BB0C61F73FC0BE01C8010E94E5
:10189000700A3AC01192E817F907E1F7C8010E94EF
:1018A000CF1132C0C8010E94AF11882309F44CCF78
:1018B000D8011B96ED91FC911C9719968D919C91E6
:1018C0001A978E0F9F1F1192E817F907E1F71CC0B6
:1018D00019821882F801848195819B838A8381858E
:1018E000928501979D838C83868197819F838E83C8
:1018F0000BC0D80119968D919C911A9703C0F801DD
:10190000828193819983888381E0DF91CF911F91B8
:101910000F91FF90EF90DF90CF90BF90AF90089520
:10192000CF93DF93FC0121A9222379F0EC010E94DF
:101930002D1A811102C080E009C08CA5811180E4BC
:101940000E94F5128823B9F319AA81E0DF91CF91A3
:1019500008950F931F93CF93C42F89016330C1F073
:1019600050F4613081F0623009F048C0FC0144A7B6
:1019700021E021AB43C0663011F1673079F1653069
:1019800009F03CC00EC0FC0184A90E94AF1236C011
:10199000FC0114A621E021AB411130C00E94EE12DF
:1019A0002DC00E94900C811104C00E94EE1280E0B4
:1019B00026C08C2F0E94F512811120C0F6CF0E9404
:1019C000900C882391F3CC23C9F0F80181918F0109
:1019D0000E94F512882349F3C150F5CF0E94900C64
:1019E000882319F3CC2351F0F80184910E94F51259
:1019F000882329F00F5F1F4FC150F4CF81E0CF91B2
:101A00001F910F9108953FB7F894809146029091ED
:101A10004702A0914802B091490226B5A89B05C093
:101A20002F3F19F00196A11DB11D3FBFBA2FA92F5D
:101A3000982F8827820F911DA11DB11DBC01CD01DA
:101A400042E0660F771F881F991F4A95D1F70895C6
:101A50008F929F92AF92BF92CF92DF92EF92FF92BE
:101A60006B017C010E94030D4B015C01C114D10488
:101A7000E104F104F1F00E94030DDC01CB018819AF
:101A80009909AA09BB09883E9340A105B10570F3E5
:101A900021E0C21AD108E108F10888EE880E83E03F
:101AA000981EA11CB11CC114D104E104F10419F762
:101AB000DDCFFF90EF90DF90CF90BF90AF909F90E1
:101AC0008F900895CF93DF9320910306211136C0A4
:101AD00021E0209302062091D506243021F02091A8
:101AE0004002222359F1EC010E94250B0E94030DB4
:101AF0006093D1067093D2068093D3069093D40658
:101B00008C818230D8F4E82FF0E0EE0FFF1FE95F00
:101B1000FE4F23E63EE031832083813041F0809107
:101B200069008C7F816080936900E89A07C080918A
:101B30006900837F846080936900E99ADF91CF9187
:101B400008951F920F920FB60F9211242F933F9377
:101B50008F939F93AF93BF938091420290914302E2
:101B6000A0914402B09145023091410223E0230F3D
:101B70002D3720F40196A11DB11D05C026E8230FC5
:101B80000296A11DB11D20934102809342029093C1
:101B90004302A0934402B093450280914602909183
:101BA0004702A0914802B09149020196A11DB11DC2
:101BB0008093460290934702A0934802B093490253
:101BC000BF91AF919F918F913F912F910F900FBE39
:101BD0000F901F9018951F920F920FB60F9211241D
:101BE0002F933F934F935F936F937F938F939F9325
:101BF000AF93BF93EF93FF93E0910901F0910A0136
:101C00000995FF91EF91BF91AF919F918F917F9136
:101C10006F915F914F913F912F910F900FBE0F9059
:101C20001F9018951F920F920FB60F9211242F93A9
:101C30003F934F935F936F937F938F939F93AF9354
:101C4000BF93EF93FF93E0910701F091080109958D
:101C5000FF91EF91BF91AF919F918F917F916F9184
:101C60005F914F913F912F910F900FBE0F901F905A
:101C70001895CF93C1E0C093030684E08093D50606
:101C80008091FC058823E9F0809102068823C9F041
:101C90004091CD0650E0440F551F65E076E08091FD
:101CA000CE069091CF060E9415278091CD06809395
:101CB000D00610920206C09304061092CD06C0937F
:101CC000D506CF910895CF92DF92EF92FF92CF93F6
:101CD000DF9300D000D0CDB7DEB70E94030D69833B
:101CE0007A838B839C83C980DA80EB80FC8080912F
:101CF000D1069091D206A091D306B091D406C81A0D
:101D0000D90AEA0AFB0A8091D506843009F449C051
:101D1000853019F0813031F51CC08091010688238F
:101D200039F08091CD0680FF02C02D9A01C02D9818
:101D30008091CD0680FD16C08091FD059091FE0535
:101D4000A0E0B0E08C159D05AE05BF0558F481E01C
:101D500026C08091FB050E949509892B11F585E02D
:101D60008093D506E091CD06F0E0EE0FFF1FEB5F0C
:101D7000F94FD182C08289819A81AB81BC818093E5
:101D8000D1069093D206A093D306B093D406809147
:101D9000CD068F5F8093CD06843618F082E00E94D6
:101DA000390E0F900F900F900F90DF91CF91FF9011
:101DB000EF90DF90CF900895DB01ED91FC910994B5
:101DC0000F931F93CF93DF9300D0CDB7DEB78C0175
:101DD000FC01648175819E012F5F3F4F46E40E94A4
:101DE000DC0E89819A81F8019183808364817581F9
:101DF0009E012F5F3F4F47E4C8010E94DC0E89819E
:101E00009A81F801938382836481758120E030E0B8
:101E100048E4C8010E94DC0EF80185879801275C20
:101E20003F4F6481758147E1C8010E94DC0E0F902D
:101E30000F90DF91CF911F910F9108950F931F93F2
:101E4000CF93DF93EC010C811D81EFA9F8AD82E007
:101E5000099520E030E04AE0B801CE010E94DC0E96
:101E6000182FEFA9F8AD83E00995EFA9F8AD80E050
:101E70000995112329F0CE010E94E00E81E001C0F6
:101E800080E0DF91CF911F910F9108952F923F92A3
:101E90004F925F926F927F928F929F92AF92BF927A
:101EA000CF92DF92EF92FF920F931F93CF93DF9326
:101EB00000D01F92CDB7DEB77C018901FB01C28043
:101EC000D3804B3309F47AC028F4473111F14233FF
:101ED000F1F104C0463441F0473459F09801B6019D
:101EE000C7010E94DC0EECC09E012F5F3F4F46E40D
:101EF00004C09E012F5F3F4F47E4B601C7010E9417
:101F0000DC0E89819A8196958795F801918380836B
:101F1000D6C047E1B6010E94DC0EF80180819181B4
:101F200096958795918380838481958196958795F1
:101F30009583848382819381969587959383828309
:101F4000868197819695879597838683B8C0F90196
:101F500080809180880C991CA280B380AA0CBB1C45
:101F600091828082B382A282980142E3B6010E94EC
:101F7000DC0E3401FFEF6F1A7F0AF8017182608274
:101F8000B382A282980142E3B601C7010E94DC0E2F
:101F9000FFEFAF1ABF0AF80171826082B382A2829A
:101FA000980142E3B601C7010E94DC0EF80191825C
:101FB0008082B382A282980142E37DC0F9019481BC
:101FC000558188E0212C312C220C331C220C331C2F
:101FD00097FF02C0F3E02F2A990F8150A9F7F8016B
:101FE00040805180440C551CA280B380AA0CBB1CBD
:101FF00050FF06C03201FFEF6F1A7F0A450105C08E
:1020000045012FEF821A920A3201F801348251827F
:102010004082B382A28298014BE3B601C7015B8381
:102020000E94DC0EF80171826082938282825B8161
:10203000558398014BE3B601C7015B830E94DC0E18
:10204000F80124825B81513099F058F05230B9F098
:102050005330D9F488E0A81AB108E8E08E1A910844
:1020600014C0F8E04F0E511C28E0620E711C0DC028
:1020700088E0A80EB11CE8E08E0E911C06C0F8E0C6
:102080004F1A510828E0621A7108F8015182408203
:10209000B382A282558398014BE3B601C7015B83EB
:1020A0000E94DC0EF80171826082938282825B81E1
:1020B000558398014BE3B601C7010E94DC0E81E015
:1020C0000F900F900F90DF91CF911F910F91FF9084
:1020D000EF90DF90CF90BF90AF909F908F907F90C8
:1020E0006F905F904F903F902F900895FC01848DEA
:1020F000082E000C990B0196089580E090E0089559
:102100000B96FC01849108950A96FC018491089530
:10211000FC01849108950E948810882321F0823068
:1021200011F083E0089586E00895FC01E60FF11DAB
:10213000849190E0982F88273196E4918E0F911D1D
:10214000089568E00C94951066E00C949510109238
:102150004F0210924E020895CF93DF93EC01E88175
:10216000F9813697808191818C0F9D1FDC01ED9163
:10217000FC910190F081E02D09952091D006888195
:102180009981263061F5E091CE06F091CF0622814B
:10219000338128333D4018F1228133812A30364182
:1021A000F0F42481358128333D40C8F02481358105
:1021B0002A303641A0F426813781273A314078F021
:1021C00026813781233C324050F422853385273ADB
:1021D000314028F022853385233C3240B0F0FC01A9
:1021E00036978081918160EA71E18C0F9D1F0E947A
:1021F000F31A882319F1E881F9813697208131811A
:10220000C20FD31F97E09A8319C0FC013697019043
:10221000F081E02DEC0FFD1F1186E881F9813697E2
:1022200080819181C80FD91F8FEF9FEFDC018B83D5
:102230009C83AD83BE8387E08A8381E0DF91CF9169
:1022400008950F931F93CF93DF938C01DC01ED91E1
:10225000FC913897C081D181C80FD91FE881F981DD
:102260003697808191818C0F9D1FDC01ED91FC914F
:102270000190F081E02D09958091D0062881398167
:10228000843009F040C0E091CE06F091CF06828103
:10229000938180379A41B8F18281938182319C4247
:1022A00090F5848195818C39964068F1848195817F
:1022B00086309B4040F586819781873A914018F19E
:1022C00086819781833C9240F0F4F9013697019022
:1022D000F081E02DEC0FFD1F1186E881F981369722
:1022E00080819181C80FD91F8FEF9FEFDC018B8315
:1022F0009C83AD83BE8381E08A8381E0DF91CF91AF
:102300001F910F910895F90136978081918160E4C2
:1023100073E28C0F9D1F0E94F31A882341F0E8811D
:10232000F981369780819181C80FD91FE4CFD801F8
:10233000ED91FC913A9780819181800F911FDF91FF
:10234000CF911F910F910C94AC10DC01ED91FC9199
:10235000389720813181820F931F0C942111FC0149
:102360008081918124813581280F391F3583248311
:10237000428153812417350780F420852F5F208701
:1023800026813781820F931F8417950710F0CA01A9
:1023900001979783868381E0089580E00895FC018A
:1023A000158214828081918101979783868310869C
:1023B0000895BF92CF92DF92EF92FF920F931F93F7
:1023C000CF93DF938C01E62EDC011696CD91DC9144
:1023D0001797CE010E948810F82EF8018681978108
:1023E0000E948B10C82EF1E0FF1203C02FE0B22E26
:1023F00002C0BB24BA94D80116968D919C91179770
:102400000E948410F82EF801868197810E94801026
:10241000D82ED80116968D919C9117970E94A110E5
:10242000B0E6BE1538F4009729F0C80FD91F91E621
:10243000F92E10C0F801868197810E94A410F0E463
:10244000FE1538F4009729F0C80FD91F81E4F82E43
:1024500001C06196DE1490F4D80154961C925497F2
:1024600057961C92579758961C92589755961C92BF
:10247000559756961C9280E090E067C0DF1460F399
:102480008C2D90E0FE0124912F3F11F4219658C02D
:10249000FE104DC0D80116968D919C9117970E9401
:1024A00088109E012F5F3F4FFE01882311F082307C
:1024B000E1F48491D80157968C935797F9012491B0
:1024C00058962C935897FE013396E4915496EC93CA
:1024D0005497FE013496E4915596EC935597FE017E
:1024E0003596E4915696EC9320C08491982F9F7076
:1024F0009250D80156969C93569782958F70559618
:102500008C935597F9012491822F8F7058968C9354
:10251000589722952F7057962C935797FE01329615
:10252000E491E295EF705496EC93CE010EC0FE015B
:102530003296E491EB219C012E0F311DC20FD31F67
:10254000FD1409F489CFF3949DCFDF91CF911F91B2
:102550000F91FF90EF90DF90CF90BF900895809300
:1025600050021092B90084FF02C08CE001C088E4E0
:102570008093B8000C94A71090914F02911104C061
:1025800080934F0260934E0208951F93CF93DF9381
:1025900000D0CDB7DEB720ED37E03A8329839091A4
:1025A000BC00982399F429813A81232B51F480911E
:1025B0005002182F127081FD09C081E00E94BC12E8
:1025C00006C029813A8121503109E7CF11E0812FDE
:1025D0000F900F90DF91CF911F91089584E9809320
:1025E000BC0064E080E10C94C512CF938093BB00E3
:1025F00084E88093BC0063E080E80E94C512C82F85
:10260000882389F080915002C82FC27081FD0AC0D2
:102610008091B900887F883229F063E082E00E94CF
:10262000BC1201C0C1E08C2FCF9108950F931F936E
:10263000FC0101501109040F151F83AD94ADDF019A
:10264000DF960D90BC91A02DA417B50720F00817B8
:10265000190738F403C00817190788F0041715077D
:1026600070F421503109260F371F81AD92AD45AD71
:1026700056AD4617570728F42817390728F480E085
:1026800009C02817390728F481E02617370710F00A
:10269000F6CF81E01F910F9108952F923F924F92B4
:1026A0005F926F927F928F929F92AF92BF92CF92E2
:1026B000DF92EF92FF920F931F93CF93DF9300D09F
:1026C00000D0CDB7DEB79C838B833B017A01622FAC
:1026D0000E94D9115C01892B09F468C0EB81FC814F
:1026E000868197810E948B10C82EEB81FC81D78850
:1026F000F08DF983EB81FC818589680E711C87FD63
:102700007A94F9810F2F10E0EB81FC818689980182
:10271000280F311D87FD3A95E21AF30A2D2D30E07E
:10272000A701B301CF010E9416138823D9F18501B7
:102730000C0D111D57E05D0D569556955695570198
:102740002B803C80F0E22F0E311C452E512C8A2D1F
:102750008E199981891730F5430168018C2D801BF2
:102760008517D0F4F6018491EB81FC816481758139
:1027700091A280A2B3A2A2A215A284A391014BE3CD
:10278000CF015A830E94DC0EFFEFCF1ADF0A28E048
:10279000820E911C5A81E2CF040D151D3FEFA31A42
:1027A000B30AD5CFEB81FC81848901C080E00F9012
:1027B0000F900F900F90DF91CF911F910F91FF908D
:1027C000EF90DF90CF90BF90AF909F908F907F90D1
:1027D0006F905F904F903F902F900895AF92BF926F
:1027E000CF92DF92EF92FF920F931F93CF93DF93DD
:1027F0001F92CDB7DEB7DC01A95BBF4F0D911C91D5
:102800005C0135E4A30EB11CD501CD90DC907C01B8
:10281000B4E0EB0EF11CDC015D96ED91FC915E974E
:10282000C70169830995AC01400F511F2981B60189
:10283000C7010E944D13F50120813181280F311D00
:1028400087FD3A953183208381E090E00F90DF91FE
:10285000CF911F910F91FF90EF90DF90CF90BF909D
:10286000AF900895E0E3F2E001900020E9F731979E
:10287000E053F240339710F010923002E0E3F2E0C0
:1028800001900020E9F73197E053F240FF27E05D27
:10289000FD4F8083118208950F931F93CF93DF9391
:1028A000EC01FE0101900020E9F73297808180322F
:1028B00011F41082F6CF8E010F5F1F4F8881803296
:1028C00029F4B801CE010E943227F8CF48E75FE033
:1028D000052E000C660B770BCE010E942E1D22E008
:1028E000C235D20769F4D093EB04C093EA04109286
:1028F000ED041092EC041092EF041092EE0435C037
:10290000009719F1FC011082F2E0CC3ADF0719F0D0
:1029100023E030E002C021E030E0220F331FF90154
:10292000E651FB4FD183C083CC5AD24019F024E04A
:1029300030E002C022E030E0220F331FF901E651FF
:10294000FB4F03969183808310C082E0CC3AD80776
:1029500019F083E090E002C081E090E0880F991FB9
:10296000FC01E651FB4FD183C083DF91CF911F91D2
:102970000F910895CF93DF9310921504CAEED4E01F
:102980001F821E82AFEDB4E013961C921397E4E30E
:10299000F2E013821986188614961C9214971482FA
:1029A0001B861A8615961C921582DF91CF91089589
:1029B000109215041092AC02ECEEF4E081E090E08D
:1029C00011921192DC01A152BB4F1C92DC01AC5C54
:1029D000BD4F1C9201968630910591F708951F9284
:1029E0000F920FB60F9211242F933F934F935F9343
:1029F0006F937F938F939F93AF93BF9380914C027C
:102A000090914D029C0123703327232B41F5409177
:102A1000FC045091FD046091FE047091FF044F5F2F
:102A20005F4F6F4F7F4F4093FC045093FD046093C2
:102A3000FE047093FF0420913A0230913B022F5F15
:102A40003F4F30933B0220933A02209151022111D3
:102A500003C021E02093060121E02093140420917B
:102A60003C0230913D022F5F3F4F30933D02209357
:102A70003C02019690934D0280934C0260E27CE10F
:102A80000E94C92D892B19F481E080930601BF9122
:102A9000AF919F918F917F916F915F914F913F91F6
:102AA0002F910F900FBE0F901F9018951F920F92AD
:102AB0000FB60F9211242F933F934F935F936F9311
:102AC0007F938F939F93AF93BF93EF93FF93F8946C
:102AD0008EE595E00E9446088F3FD9F120914A0289
:102AE00030914B028A3019F08D3021F00EC0211543
:102AF000310571F3F901E05AFC4F108210924B023C
:102B000010924A020E944C18E3CFA9014F5F5F4F19
:102B100050934B0240934A02F901E05AFC4F8083E4
:102B2000443B5105A8F28FE69FE00E94BE1B85EC56
:102B300091E00E94DF1BE0914A02F0914B02E05AC3
:102B4000FC4F10820E944C1810924B0210924A02C5
:102B5000BFCF7894FF91EF91BF91AF919F918F91EB
:102B60007F916F915F914F913F912F910F900FBE89
:102B70000F901F9018952F923F924F925F926F92F5
:102B80007F928F929F92AF92BF92CF92DF92EF92FD
:102B9000FF920F931F93CF93DF93CDB7DEB76F975D
:102BA0000FB6F894DEBF0FBECDBF8CEF94E00E944D
:102BB0004B1DFC0190935D0580935C056091FA04C8
:102BC0007091FB0440813181228193818581DE01F6
:102BD00011966D016435710539F5642F042E000CD2
:102BE000770B7F934F93432F032E000C550B5F936E
:102BF0003F93422F022E000C550B5F932F93292FEA
:102C0000092E000C330B3F939F93282F082E000CA6
:102C1000330B3F938F9388EC91E09F938F93BF93F7
:102C2000AF930E9462272CC0642F042E000C770BF8
:102C30007F934F93432F032E000C550B5F933F93CD
:102C4000422F022E000C550B5F932F932681378164
:102C50002459384F3F932F93292F092E000C330B03
:102C60003F939F93282F082E000C330B3F938F9395
:102C700082EE91E09F938F93BF93AF930E94622760
:102C80000FB6F894DEBF0FBECDBF8091340781111F
:102C900007C081E0809334078FEE96E00E941E0FFC
:102CA0008091F3069091F4060E94071D22242A9435
:102CB000312C88248A94982C2091F8043091F904BE
:102CC0006091FA047091FB04C901880F991F880F65
:102CD000991F059736952795821B930B0E94891C97
:102CE0006091F8047091F9048091FA049091FB04CA
:102CF00001970E94E21C0AEEA02E04E0B02EE12C07
:102D0000F12CE114F10419F41092150713C031E00D
:102D10003093150783E0E816F10464F08091F8041D
:102D20009091F9049695879503979093F704809373
:102D3000F60404C09092F7048092F604D5014D91F8
:102D40005D915D014115510509F487C0E114F1045D
:102D500009F068C08091E504811109C08091DF0409
:102D6000480F511D60E070E081E090E058C045EEF2
:102D700054E060E070E081E090E00E94481C8091A7
:102D8000DF046090EA047090EB04680E711C2091DF
:102D9000E504222309F43DC0622F8FEE96E02F8FC9
:102DA0000E94D91100910407112701950CF4109588
:102DB000F5EE4F2EF4E05F2E2F8DBFEF4B1A5B0A1E
:102DC000F2018081882371F090910307090F111D92
:102DD00097FD1A95282F682F8FEE96E02F8F0E946F
:102DE000D911EACF203261F02091040780910607C3
:102DF00090E0820F911D27FD9A95800F911F0BC0C7
:102E0000809103079801280F311D87FD3A95C9016C
:102E100002C080E090E0A30160E070E002970E94B1
:102E2000481C65C0F701E152FB4F8081480F511DDE
:102E30008091F8049091F904E89EB001E99E700D2C
:102E4000F89E700D11248091F6049091F704680F9C
:102E5000791F80E090E00E94481C35E0E316F10401
:102E600009F045C02091F8043091F9046091FA040A
:102E70007091FB04615071098091F6049091F70400
:102E80000197A5E0A29FA001A39F500D1124840FDC
:102E9000951F36952795820F931F0E94AE1C209197
:102EA000F8043091F90460915A0570915B054091E6
:102EB000FA045091FB04649FC001659F900D749FBC
:102EC000900D1124B1010E94C92DB5E0B29FA0015F
:102ED000B39F500D112436952795240F351F8091EF
:102EE000F6049091F704820F931F0E94891CEFEF64
:102EF000EE1AFE0AF6E0EF16F10409F002CFE090B8
:102F0000DD04F090DE048091F8049091F904E81A51
:102F1000F90A0091FA041091FB0416950795C60171
:102F20000E94F11B96958795A601B7019801281B71
:102F3000390BC9010E94481C0E940E1C8111BCCE95
:102F40006F960FB6F894DEBF0FBECDBFDF91CF9165
:102F50001F910F91FF90EF90DF90CF90BF90AF90B7
:102F60009F908F907F906F905F904F903F902F90A9
:102F70000895CF93DF931092030680910406E091A9
:102F8000CE06F091CF06882321F0BF0110920406EF
:102F900006C08091CD068093D00665E076E020E003
:102FA0008091D0062817E0F4822F90E0880F991FB7
:102FB000DF01A80FB91FEB01C80FD91F4881598144
:102FC0008091E8069091E90620FF03C091958195D4
:102FD0009109840F951F11969C938E932F5FE0CFDC
:102FE0001092020681E0DF91CF9108958091F5065D
:102FF0009091F606009709F437C020910A07FC016A
:10300000211107C03596E491E0930B07FC013C9633
:103010000FC0213039F43F96E491E0930B07FC0197
:10302000709606C03D96E491E0930B07FC013E9636
:10303000E491E0930C0780910B07082E000C990B8C
:1030400020910C07821B910927FD939520910D0774
:10305000203441F0829FC001112426E09695879587
:103060002A95E1F780930E0708950F931F93CF934E
:10307000DF930AE010E0C9ECD4E0C8010E94A32D60
:1030800089930F5F1F4F81508E3FB8F31882DF91F5
:10309000CF911F910F910895EF92FF920F931F937D
:1030A000CF93DF93CDB7DEB7AA970FB6F894DEBF04
:1030B0000FBECDBFE0E6F3E09191992301F18EE3DD
:1030C000890F8230C8F78081282F2F7330E4939FB7
:1030D000C0011124822B8083AF01CA018056934026
:1030E000DA012D91AD01222329F0CA010297DC01FA
:1030F0002C93F3CFDC01A15ABC4F1C92DDCF48ECDE
:103100005FE0052E000C660B770B80E693E00E94D3
:103110002E1D892B59F10E94D81483E291E09093DF
:10312000EB048093EA0487E191E09093ED048093AF
:10313000EC048BE091E09093EF048093EE04109206
:10314000E5040E94351889EB91E09093F104809397
:10315000F00489EC94E09093F3048093F2040E94CD
:10316000BB1560E08CE00E94BE096AC140EC5FE0E4
:10317000052E000C660B770B80E693E00E942E1D57
:103180008C01892B51F00E94BA14B801695F7F4FFE
:1031900085E194E00E943227D9C048EB5FE0052E1C
:1031A000000C660B770B80E693E00E942E1D0097C3
:1031B00071F0BC01695F7F4F80E095E00E9432278B
:1031C00080E095E09093EF048093EE04E2C040EB42
:1031D0005FE0052E000C660B770B80E693E00E9403
:1031E0002E1D8C01892B99F00E94D814F80187813B
:1031F000811103C062E572E003C0B801695F7F4FCF
:103200008CEA92E00E9432278CEA92E0A1C048EA60
:103210005FE0052E000C660B770B80E693E00E94C2
:103220002E1D892B69F060E08CE00E94BE090E948F
:10323000BA1460EA7FE085E194E00E945F2D86C0C9
:1032400043E95FE0052E000C660B770B80E693E008
:103250000E942E1D8C01892B19F10E943518045FE4
:103260001F4FB80189EC94E00E942927892B09F4AB
:10327000E7C08AE0E82EF12CFFEFEF1AFF0AD80131
:103280006C91C70101970E94AB2DF80181918F01CC
:1032900081508E3F88F360E0C7010E94AB2DD0C003
:1032A0004AE85FE0052E000C660B770B80E693E0A2
:1032B0000E942E1D009779F1BC01685F7F4F82E567
:1032C00092E00E94322760E270E082E592E00E9484
:1032D0001E278C0101551240A80162E572E085EEBF
:1032E00094E00E943927F801EB51FB4F1082E5EE84
:1032F000F4E001900020E9F73197BF01655E74406A
:103300006E5A7D4F82E592E00E94322782E592E07C
:103310000E944C1495C044E85FE0052E000C660B3B
:10332000770B80E693E00E942E1D892BA1F061E0CF
:103330008CE00E94BE096CE77FE085E194E00E948A
:10334000562D892B09F07CC01092150485E194E07C
:103350000E944C141EC061E072E080E693E00E947F
:103360004827009741F006960E94382D90935B0500
:1033700080935A050EC067E072E080E693E00E94F9
:103380004827009709F45CC0DC011B962C9122337E
:1033900021F081E08093140453C0BC01655F7F4F2E
:1033A0008E010F5F1F4FC8010E9432278CEF94E0FF
:1033B0000E944B1D90935D0580935C05CE014F9656
:1033C0009F938F9302969F938F9302969F938F93D1
:1033D00002969F938F9302969F938F9302969F934B
:1033E0008F9382E192E09F938F931F930F930E949C
:1033F0008527E0915C05F0915D0589A59AA52FA12F
:1034000025832DA123832BA1228329A121832F8D05
:1034100020838C56974097838683CF010E94191E84
:103420006093FC047093FD048093FE049093FF046A
:1034300081E0809351020FB6F894DEBF0FBECDBF7E
:10344000AA960FB6F894DEBF0FBECDBFDF91CF9125
:103450001F910F91FF90EF900895CF9384EA80938E
:10346000BC0061E080E80E94C512882359F0809179
:10347000B900887F883041F0803131F061E082E02E
:103480000E94BC12C0E01DC088E78093BB0084E8A6
:103490008093BC0062E080E80E94C512882391F30B
:1034A00080915002C82FC27081FD0AC08091B9007E
:1034B000887F883129F062E082E00E94BC1201C05E
:1034C000C1E08C2FCF910895DF92EF92FF920F937E
:1034D0001F93CF93DF937C01EB0100E010E0DD242C
:1034E000DA94CE01801B910B0897D0F06091F3061F
:1034F0007091F4061093100700930F07F0921207D3
:10350000E092110710921407D09213072FE037E0D2
:103510004BE38FEE96E00E94DC0E085F1F4FE1CF79
:10352000CE01887FC770DD27209741F127E0C227B1
:103530006091F3067091F4069093100780930F0743
:10354000F0921207E0921107109214072196C770AB
:10355000DD278FEF01C0880FCA95EAF78093130724
:103560002FE037E04BE38FEE96E0DF91CF911F9194
:103570000F91FF90EF90DF900C94DC0EDF91CF91D4
:103580001F910F91FF90EF90DF900895EF92FF92BF
:103590000F931F93CF93DF937C018B01C0E0D0E0AA
:1035A000B701CE010E94641A21960C171D07C1F7BE
:1035B000DF91CF911F910F91FF90EF9008959B01A4
:1035C000EBEEF6E06085718595A384A337A326A36F
:1035D00081E081A780EE80A72FE037E04BE38FEEFC
:1035E00096E00C94DC0E8F929F92AF92BF92CF9296
:1035F000DF92EF92FF920F931F93CF93DF93EC0133
:103600005B01E881F9810190F081E02D099510912D
:10361000D0068091D006843411F080E0A2C08A8563
:10362000E090CE06F090CF0681112EC0A114B10417
:1036300059F1F701C280D380B50180E090E00E948B
:1036400015264B015C0120E030E040E45FE30E947E
:10365000A3260E94E625C616D706F8F2F701C28017
:10366000D38020E030E040EA5FE3C501B4010E946E
:10367000A32620E030E040E85FE30E947A250E9424
:10368000E6256C157D0548F2F70184819581883324
:103690009D4018F2F701848195818A30964108F0A7
:1036A000BCCF83E08B8720E030E040E050E060E07A
:1036B00070E080E090E0DD24DA94D10EAB85EA2F53
:1036C000F0E0AD1588F4EE0FFF1FEE0DFF1D008139
:1036D0001181073A114008F4A0CF0190F081E02D4C
:1036E000E33CF240A0F099CFDF011197B7FDDF0175
:1036F000B595A795A150A9872B833C834D835E8305
:1037000000E20E9457252F83388781E02AC011E00C
:103710001A0F1B87F701E10FF11DE10FF11D008169
:103720001181053F144060F000811181053418407B
:1037300038F401E00E943C252160AE5FAB87BECF2C
:1037400000811181073A114008F467CF0190F081A0
:10375000E02DE33CF24008F060CF01E00E943C2500
:10376000ECCFDF91CF911F910F91FF90EF90DF9001
:10377000CF90BF90AF909F908F9008950F931F931D
:10378000CF93DF938C01C0E0D0E0F801EC0FFD1F78
:103790006491662371F0E0915E05F0915F05019000
:1037A000F081E02D8EE595E00995892B11F02196A9
:1037B000ECCFCE01DF91CF911F910F91089500972B
:1037C00069F0FC0101900020E9F73197AF01481B37
:1037D000590BBC018EE595E00C941B0880E090E04D
:1037E00008950F931F93CF93DF938C01C0E0D0E037
:1037F000F80161918F01662359F08FEE96E00E94E7
:10380000D91180910307C80FD11D87FDDA95F0CF3C
:10381000CE01DF91CF911F910F9108950F931F93C8
:10382000CF93E0910107F0910207309719F08FEEE6
:1038300096E009950091F3061091F406E0912607B1
:10384000F091270782E00995E0912607F09127077C
:1038500081E0099520E030E045E1B8018FEE96E087
:103860000E94DC0EC82F882341F028E237E047E1B0
:10387000B8018FEE96E00E94DC0EE0912607F091F1
:10388000270780E009958C2FCF911F910F91089504
:10389000AF92BF92CF92DF92EF92FF920F931F935E
:1038A000CF93DF9300D0CDB7DEB76C017B01E09101
:1038B0000807F09109078FEE96E049835A8309952E
:1038C000E80EF91E4981A42E5A81B52E00E010E0C1
:1038D000F50121915F01222371F0A701B6018FEE5E
:1038E00096E00E944D13282F880F330BC20ED31E73
:1038F000020F131FEDCFC8010F900F90DF91CF91F2
:103900001F910F91FF90EF90DF90CF90BF90AF90FD
:103910000895EF92FF920F931F93CF93DF93EC01E3
:103920007B0101E010E09B01AC0160E070E08FEEF4
:1039300096E00E941613882351F0B701CE01DF9163
:10394000CF911F910F91FF90EF900C94641ADF912B
:10395000CF911F910F91FF90EF900895EF92FF92FA
:103960000F931F93CF93DF93EC017B0103E010E0F3
:103970009B01AC0160E070E08FEE96E00E941613B0
:103980008823C9F0B701CE010E94641ABE0180E00D
:1039900090E00E94DF1ABE01C70101970E94DF1A62
:1039A000B701CE010296DF91CF911F910F91FF9049
:1039B000EF900C94641ADF91CF911F910F91FF90BB
:1039C000EF900895EF92FF920F931F93CF93DF93A1
:1039D000EC017B018B019C0140E050E060E070E075
:1039E0008FEE96E00E941613882351F0B701CE01A6
:1039F000DF91CF911F910F91FF90EF900C94C61A19
:103A0000DF91CF911F910F91FF90EF9008950F9349
:103A10001F93CF93DF938C01CBEED6E0EBADFCADE3
:103A200082E00995EBADFCAD81E0099520E030E046
:103A300044E1B8018FEE96E00E94DC0E28E237E008
:103A400047E1B8018FEE96E00E94DC0EEBADFCADD5
:103A500080E0DF91CF911F910F910994FA01DC0171
:103A60000590002009F40895FA0105907D917723CF
:103A700069F07015CD01D1F70590002051F07C91CF
:103A8000772321F0701581F71196F6CF88279927B3
:103A900008950197089565EC77E00E94521D85EC2A
:103AA00097E00895A8E0B0E0E8E5FDE10C944E2E23
:103AB0008B01FC01608171818281938120E831E575
:103AC00041E050E00E94F12D69017A012CE330E0E1
:103AD00040E050E00E94132E29833A834B835C839D
:103AE00089819A81AB81BC81F80160836CE370E0CD
:103AF0000E94DD2DDC01CB01F801A1838283C60188
:103B0000069667E070E00E94C92D84832DEA3EE8A6
:103B100040E050E0C701B6010E94132E29833A838A
:103B20006D837E838F83988789819A8124E6289F7D
:103B30006001299FD00C11246D817E818F81988531
:103B400025EB35E040E050E00E94132E29833A83B4
:103B50006D837E83E980FA80EE0CFF1CEE0CFF1C67
:103B6000EC0CFD1C8D819E81F5E6EF16F10410F042
:103B7000019604C024E6E216F10419F021E030E0D9
:103B800002C020E030E0A90144595E4F48175907B0
:103B900068F46DE671E0821B930B0E94DD2DDC0161
:103BA000CB01E80EF91ECD0120E030E044E6E40E42
:103BB000F11CF801F782E68291878087255C3F4FF0
:103BC0008217930748F46FE170E00E94DD2DDC015D
:103BD000CB01F801858322C069E970E0821B930B59
:103BE0000E94DD2DDC01CB01F82EFF0CFF0CF80E3E
:103BF0006DE370E0CD010E94DD2DDC01CB01E82EEC
:103C0000EE0C6FE170E0CD010E94DD2DDC01CB01F7
:103C100022E0280FF20EFE0CF801F582A383F801D2
:103C20001386128683818F5F83832896E8E00C9445
:103C30006A2EA4E0B0E0EFE1FEE10C944E2E8C0180
:103C40000E94B41E69837A838B839C83F8018285EA
:103C5000938597FF0EC0E091D507F091D607309776
:103C600041F061ED77E0CE0101960995F801938767
:103C70008287F801828593851816190694F4092E17
:103C8000000CAA0BBB0B49815A816B817C816A01B4
:103C90007B01C81AD90AEA0AFB0AC982DA82EB82D6
:103CA000FC8289819A81AB81BC814091D10750917E
:103CB000D2076091D3077091D407841B950BA60B94
:103CC000B70B89839A83AB83BC83B801CE0101967D
:103CD0000E94721E69817A818B819C812496E8E022
:103CE0000C946A2EA4E0B0E0E8E7FEE10C944E2EBE
:103CF0006C017B01E091D507F091D607309729F050
:103D000061ED77E009958C0102C00FEF1FEFF6011E
:103D100040815181628173818091D1079091D20756
:103D2000A091D307B091D407480F591F6A1F7B1F7A
:103D3000101611064CF4C801012E000CAA0BBB0B87
:103D4000480F591F6A1F7B1F49835A836B837C83EB
:103D5000B701CE0101960E94521DF7011387028719
:103D60002496E8E00C946A2EA0E0B0E0EAEBFEE1D5
:103D70000C944A2EEC01EE81FF818F01045611094B
:103D8000B9F0CF01855691096C0197FF03C023E07C
:103D9000C20ED11CD594C794D594C7946CE97FEF1B
:103DA0000E94DD2DC60ED71E8FEFC81AD80A02C09A
:103DB000C12CD12C0D2C000CEE08FF082DE631E0B3
:103DC000D8010E94322EC60ED71EE81EF91E8B8126
:103DD000082E000C990B8C01015011092D81223005
:103DE0002CF4222379F1015E1F4F2CC0CF0184599E
:103DF000984F0E94611FE82FF0E0FB96E00FF11F43
:103E00008D81082E000C990B02978530910514F0D6
:103E1000E756FF4F65E070E00E94DD2D9C0197FFA3
:103E200002C02F5F3F4F359527959DE3929FA001DC
:103E3000939F500D11248F01040F151F80FF02C0A6
:103E4000015E1F4FA801110F660B770B9A01AB01A2
:103E50002C0D3D1D4E1D5F1D60E871E581E090E079
:103E60000E94B92D6B017C01AA810A2E000CBB0BAC
:103E700020E13EE00E94322E4B015C01A9810A2E16
:103E8000000CBB0B2CE330E00E94322EDC01CB0196
:103E9000880D991DAA1DBB1D4881042E000C550BD1
:103EA000660B770B840F951FA61FB71FBC01CD01B2
:103EB0006C0D7D1D8E1D9F1DCDB7DEB7ECE00C9403
:103EC000662E9C0123703327232B59F464E670E09F
:103ED0000E94DD2D892B39F46370772781E0672BF1
:103EE00019F080E0089581E00895CF93DF93CDB776
:103EF000DEB7A4970FB6F894DEBF0FBECDBF78949F
:103F000084B5826084BD84B5816084BD85B58260DE
:103F100085BD85B5816085BD80916E00816080938F
:103F20006E001092810080918100826080938100F8
:103F30008091810081608093810080918000816008
:103F4000809380008091B10084608093B100809163
:103F5000B00081608093B00080917A00846080938B
:103F60007A0080917A00826080937A0080917A0052
:103F7000816080937A0080917A00806880937A00D3
:103F80001092C10088E0EDEBF1E0DE0111960190A6
:103F90000D928A95E1F7E0916E05F0916F0582E050
:103FA0008083E0916A05F0916B051082E0916C05C9
:103FB000F0916D0584E4808310927605E09172059E
:103FC000F091730586E08083E0917005F0917105B2
:103FD000808180618083E0917005F091710580811E
:103FE00088608083E0917005F09171058081806820
:103FF0008083E0917005F091710580818F7D8083D1
:1040000061E08DE00E94EE0961E08CE00E94EE0923
:1040100060E088E00E94EE0961E088E00E94BE094D
:1040200060E08CE00E94BE0986EE96E00E94620D80
:10403000109230025DE7C52E50E1D52E63E0262EAA
:10404000312C76E4472E7FE0572EE0E06E2EE1E043
:104050007E2EF3E2AF2EF1E0BF2EA7E18A2EA1E083
:104060009A2E82E090E00E94A32D80933E02805B16
:10407000803218F088EB80933E0210913E02110FBF
:1040800080913407811107C081E0809334078FEE5F
:1040900096E00E941E0F6091F3067091F4061AA339
:1040A0009E012E5D3F4F4FE08FEE96E00E94DC0EAA
:1040B0002091EF063091F0068091F5069091F6067A
:1040C0002435310551F480599840B1F080E998E0E9
:1040D0009093F6068093F50609C08654914061F0EE
:1040E00026E431E03093F6062093F5060E94F61799
:1040F000D0920907C092080781E080930A070E94C6
:10410000F6178091FC06803331F48FEF809315070A
:10411000809316070BC0883221F0823021F081E0B5
:1041200003C08FEF01C083E08093150786E790E11D
:10413000909309078093080780910E07082E000CC2
:10414000990B9093F9048093F8048091F106909173
:10415000F2069093DE048093DD048091EF06909147
:10416000F0069093FB048093FA041092F7041092E7
:10417000F6040E94D81400E010E080913407811109
:1041800007C091E0909334078FEE96E00E941E0FD7
:104190008091F3069091F4060E94071D8091F1062C
:1041A0009091F206B1010E94C92DE090EF06F090C7
:1041B000F006F694E794CE0101966BA37CA30E94CF
:1041C000F11B96958795AE014F5F5F4F6BA17CA168
:1041D000F701E81BF90BCF010E94481C0E940E1C3E
:1041E0008111DCCF64EF71E080E090E00E94280D47
:1041F0008091F3069091F40600FF11C0F1E0803049
:104200009F0741F090930301809302017092F4069E
:104210006092F30650920101409200010BC0805061
:10422000914061F480910201909103019093F40612
:104230008093F3068FEE96E00E94E00E0F5F1F4F13
:104240000530110509F099CFB092EB04A092EA0471
:104250009092ED048092EC041092E5040E943518CF
:1042600089EB91E09093F1048093F00489EC94E061
:104270009093F3048093F2040E94BB1560ED77E005
:1042800080E090E00E94280D88E00E949509892B2B
:10429000F9F480913E028F5F80933E02803D18F0DA
:1042A00080EB80933E0260913E0282E090E00E94AB
:1042B000AB2D80913E0240E165E174E090E00E9408
:1042C000662D85E194E09093EF048093EE04C9CECF
:1042D000F8941092B0001092B1001092B20089EFE1
:1042E0008093B3008091B00082608093B000809191
:1042F000B10084608093B1008091700082608093EF
:1043000070007894F89410928000109281001092BE
:1043100085001092840081E49FE09093890080934F
:104320008800809181008860809381008091810065
:1043300085608093810080916F00826080936F0020
:1043400078948BE091E09093EF048093EE040E94C8
:10435000BB159924939426E0822E77247394809140
:10436000030681112EC08091D506853009F09FC0CB
:104370008091FB050E949509892B09F498C08FB79D
:10438000F894C090D106D090D206E090D306F09079
:10439000D4068FBF0E94030DAB01BC014C195D090F
:1043A0006E097F098091FD059091FE05A0E0B0E0C7
:1043B00084179507A607B70708F079C083E00E9425
:1043C000390E0E94B91786ED96E00E942111809166
:1043D000DB069091DC06A091DD06B091DE068F3FF2
:1043E0009105EFEEAE07E0E1BE0761F108F0F5C020
:1043F0008D3A22E592072FEFA207B10509F4FFC01D
:1044000008F08FC18D3DE2E29E07EFEFAE07B105E8
:1044100009F418C1D8F0873CF8E39F07FFEFAF0716
:10442000B10509F469C108F469C18D3BE2E49E0756
:10443000EFEFAE07B10509F46FC1853B9A44AF4F6A
:10444000B10589F580E30E9432142DC08F3E20E132
:1044500092072FEFA207B10509F415C1873E38E195
:1044600093073FEFA307B10509F423C18D3F9240A5
:10447000AF4FB105C1F480913002882309F41BC10C
:1044800084E091E00E94BE1B80E392E00E94DF1B6B
:1044900080E091E00E94BE1B80913F0289258093BD
:1044A0003F021092300286EE96E00E94620D8091EB
:1044B0003C0290913D02892B41F480913A02909107
:1044C0003B02059708F062C085C08DE00E94950907
:1044D00061E0892B09F060E08DE00E94BE09109236
:1044E0003D0210923C0280911404882321F0109226
:1044F00014040E94BB1584E3E82E82E0F82E0FED31
:1045000014E09AEEA92E94E0B92EC12CD12CF7011B
:104510008081882341F0843011F4F80110828150A9
:10452000F701808323C0F8012081F501808191810A
:10453000820F911D0E94F11B2C01C114D10431F492
:1045400085EE94E00E94F11B480E591E8091FA04FA
:104550009091FB048415950538F4F80180818F5FF4
:1045600080837092140402C0F7018082FFEFCF1A9B
:10457000DF0A2FEFE21AF20A0F5F1F4F32E0A30E9D
:10458000B11C86E0C816D10411F697CF10923B02F9
:1045900010923A02809106018823E1F08091510245
:1045A000811112C081E391E00E94BE1B19A281E338
:1045B00088A3CE0180960E94DF1B8DE291E00E94CD
:1045C000BE1B83E291E002C08CE391E00E94BE1B1F
:1045D000109206010E940809C2CE8F37E0E89E07BC
:1045E000EFEEAE07E0E1BE0709F4BEC078F0873415
:1045F000E8EB9E07EFEEAE07E0E1BE0741F5109253
:10460000300282EC90E00E94BE1B4DCF8F3B20E435
:1046100092072FEEA20720E1B20709F4C8C008F400
:1046200054C0873B38E493073FEEA30730E1B3075C
:1046300009F48EC008F0D1C08D3B9244AF4EB0411A
:1046400009F031CF109230028FE091E0DCCF883456
:10465000F8EB9F07FFEEAF07F0E1BF07B0F087333D
:1046600038EC93073FEEA30730E1B30709F48DC0A0
:1046700008F4D0C08F3120EE92072FEEA20720E180
:10468000B20709F043C087E3DECE8F3620E99207F8
:104690002FEEA20720E1B20709F46EC008F4ADC006
:1046A0008F35F0EA9F07FFEEAF07F0E1BF0709F093
:1046B000AAC085E3C8CE80913F02882319F085EF18
:1046C00090E0E8CE8BEE90E0E5CE8F3DE0E29E07F5
:1046D000EFEEAE07E0E1BE07B9F0873DF8E29F07D5
:1046E000FFEEAF07F0E1BF0709F472C08F3E9041C3
:1046F000AF4EB04109F0D7CE88E3A5CE8F3C9043B2
:10470000AF4FB10509F0CFCE84E39DCE8731984EEF
:10471000AF4EB04109F0C7CE109230028DEC90E060
:1047200072CF85382AE792072FEFA207B10511F45F
:1047300086E389CE86383AE793073FEFA307B105B2
:10474000E8F48D39E2E69E07EFEFAE07B10529F4F4
:104750001092300289E191E056CF8739F8E69F0741
:10476000FFEFAF07B10511F481E36DCE853A9A45AD
:10477000AF4FB10509F097CE89E365CE873538EAAA
:1047800093073FEFA307B10529F41092300287ED9C
:1047900090E039CF8835E8EA9E07EFEFAE07B10524
:1047A00040F487369849AF4FB10509F07CCE82E3DB
:1047B0004ACE8F3420EB92072FEFA207B10511F4F8
:1047C00083E341CE8D33924CAF4FB10509F06BCEF0
:1047D0001092300281EE90E016CF8F3920E69207DA
:1047E0002FEEA20720E1B20709F4A2CF873898473D
:1047F000AF4EB04109F43FCE56CE8D379248AF4E02
:10480000B04131F350CE8735984AAF4EB04109F4EC
:1048100019CF49CE8F33904CAF4EB04189F243CE81
:10482000FB0120813181FC0131832083FB01428126
:104830005381F901369720813181FC01E20FF31F8A
:10484000518340830895FB0120813181FC01318334
:104850002083FB0142815381F90136972081318108
:10486000FC01E20FF31F518340830895CF93DF9340
:10487000EC0181E691E09B838A831092020685E039
:1048800096E09093CF068093CE061C861C821D82F4
:104890001E821F8218861A8619861B8669E871E0B7
:1048A000CE010E9423246DE871E0CE010E960E9495
:1048B00010248DE691E09983888385E791E09B83BE
:1048C0008A838FE791E09F878E87DF91CF9108954C
:1048D000109261051092600588EE93E0A0E0B0E0D0
:1048E0008093620590936305A0936405B09365057A
:1048F00085E991E090935F0580935E0585EC90E0FB
:1049000090936B0580936A0584EC90E090936D051D
:1049100080936C0580EC90E090936F0580936E051A
:1049200081EC90E0909371058093700582EC90E0AB
:10493000909373058093720586EC90E090937505D3
:10494000809374051092770510927805109279057E
:1049500010927A051092EE061092ED068DEA91E023
:104960009093EC068093EB0610923107109230077B
:104970001092330710923207109234071092F60605
:104980001092F5061092F8061092F7061092FA06A9
:1049900081E08093F90682E28093FB061092020781
:1049A00010920107E8E1F7E09FEF8EE08E0F919300
:1049B0008E13FDCF81E0809315072DE730E1309312
:1049C00009072093080780930A0710920B0710929B
:1049D0000C0780E480930D0710920E0784E29BE0A1
:1049E000909327078093260789E391E09093F4063C
:1049F0008093F306109223078FEE96E00E941E0F1D
:104A000085EB91E09093EC068093EB0685EA91E0CC
:104A10009093E7068093E6061092020685E096E002
:104A20009093CF068093CE061092FC0588E79EE116
:104A30009093FE058093FD058CE990E0909300062D
:104A40008093FF0582E390E09093E9068093E80667
:104A5000109203061092010684E08093D50610920E
:104A6000EA0682E08093FB0585EB97E00E943624FE
:104A700086ED96E00C9436240F93083090F0982F32
:104A8000872F762F652F542F432F322F2227085040
:104A9000F4CF220F331F441F551F661F771F881F37
:104AA000991F0A95B2F70F91089597FB10F8169485
:104AB00000080F93083098F00850232F342F452F0B
:104AC000562F672F782F892F902DF4CF0594979527
:104AD00087957795679557954795379527950A95C3
:104AE000AAF70F910895EE0FFF1F0590F491E02DA6
:104AF00009945058BB27AA270E9491250C94692637
:104B00000E945B2638F00E94622620F039F49F3F15
:104B100019F426F40C9458260EF4E095E7FB0C9457
:104B20005226E92F0E947A2658F3BA1762077307B4
:104B30008407950720F079F4A6F50C949C260EF4D2
:104B4000E0950B2EBA2FA02D0B01B90190010C019D
:104B5000CA01A0011124FF27591B99F0593F50F4B5
:104B6000503E68F11A16F040A22F232F342F44270D
:104B7000585FF3CF469537952795A795F040539505
:104B8000C9F77EF41F16BA0B620B730B840BBAF0D5
:104B90009150A1F0FF0FBB1F661F771F881FC2F740
:104BA0000EC0BA0F621F731F841F48F48795779554
:104BB0006795B795F7959E3F08F0B0CF9395880F0E
:104BC00008F09927EE0F9795879508950E94822601
:104BD00088F09F5798F0B92F9927B751B0F0E1F0BE
:104BE000660F771F881F991F1AF0BA95C9F714C06E
:104BF000B13091F00E949C26B1E008950C949C265F
:104C0000672F782F8827B85F39F0B93FCCF38695A6
:104C100077956795B395D9F73EF490958095709503
:104C200061957F4F8F4F9F4F0895E89409C097FB80
:104C30003EF490958095709561957F4F8F4F9F4F73
:104C40009923A9F0F92F96E9BB279395F6958795B7
:104C500077956795B795F111F8CFFAF4BB0F11F47A
:104C600060FF1BC06F5F7F4F8F4F9F4F16C0882321
:104C700011F096E911C0772321F09EE8872F762F57
:104C800005C0662371F096E8862F70E060E02AF098
:104C90009A95660F771F881FDAF7880F9695879584
:104CA00097F9089597F99F6780E870E060E00895AC
:104CB0009FEF80EC089500240A9416161706180634
:104CC0000906089500240A94121613061406050610
:104CD0000895092E0394000C11F4882352F0BB0FA1
:104CE00040F4BF2B11F460FF04C06F5F7F4F8F4F04
:104CF0009F4F089557FD9058440F551F59F05F3F3F
:104D000071F04795880F97FB991F61F09F3F79F0ED
:104D100087950895121613061406551FF2CF46956F
:104D2000F1DF08C0161617061806991FF1CF8695F1
:104D30007105610508940895E894BB2766277727D5
:104D4000CB0197F908950E94B6260C9469260E941B
:104D50005B2638F00E94622620F0952311F00C9417
:104D600052260C94582611240C949D260E947A26D3
:104D700070F3959FC1F3950F50E0551F629FF001AE
:104D8000729FBB27F00DB11D639FAA27F00DB11DC7
:104D9000AA1F649F6627B00DA11D661F829F222750
:104DA000B00DA11D621F739FB00DA11D621F839FD7
:104DB000A00D611D221F749F3327A00D611D231FAD
:104DC000849F600D211D822F762F6A2F11249F57FB
:104DD00050409AF0F1F088234AF0EE0FFF1FBB1FFE
:104DE000661F771F881F91505040A9F79E3F5105BD
:104DF00080F00C9452260C949D265F3FE4F3983E7D
:104E0000D4F3869577956795B795F795E7959F5F66
:104E1000C1F7FE2B880F911D9695879597F90895F8
:104E200081E090E0F8940C948A2EFB01DC0102C032
:104E300001900D9241505040D8F70895FC018191A6
:104E4000861721F08823D9F7992708953197CF0144
:104E50000895FB01DC018D91019080190110D9F3B7
:104E6000990B0895FB01DC0101900D920020E1F700
:104E70000895FB01DC014150504048F001900D9233
:104E80000020C9F701C01D9241505040E0F708953D
:104E9000FB0151915523A9F0BF01DC014D9145174C
:104EA0004111E1F759F4CD010190002049F04D91F5
:104EB00040154111C9F3FB014111EFCF81E090E0B2
:104EC00001970895AEE0B0E0E8E6F7E20C94522EC8
:104ED0000D891E8986E08C831A8309838FEF9FE7F3
:104EE0009E838D83AE01475E5F4F6F89788DCE01C3
:104EF00001960E949E272F813885F801E20FF31F4B
:104F000010822E96E4E00C946E2EAEE0B0E0EBE85A
:104F1000F7E20C94542E85E08C838B899C899A83CC
:104F20008983AE01495E5F4F6D897E89CE0101960E
:104F30000E94F02A2E96E2E00C94702EACE0B0E0D5
:104F4000E4EAF7E20C94442E7C016B018A01FC0137
:104F500017821682838181FFBDC1CE0101964C016B
:104F6000F7019381F60193FD859193FF81916F0184
:104F7000882309F4ABC1853239F493FD859193FF01
:104F800081916F01853229F4B70190E00E94862C4F
:104F9000E7CF512C312C20E02032A0F48B3269F085
:104FA00030F4803259F0833269F420612CC08D32A4
:104FB00039F0803339F4216026C02260246023C098
:104FC000286021C027FD27C030ED380F3A3078F433
:104FD00026FF06C0FAE05F9E300D1124532E13C049
:104FE0008AE0389E300D1124332E20620CC08E32A0
:104FF00021F426FD6BC1206406C08C3611F42068B4
:1050000002C0883641F4F60193FD859193FF8191AA
:105010006F018111C1CF982F9F7D9554933028F453
:105020000C5F1F4FFFE3F9830DC0833631F08337E8
:1050300071F0833509F05BC022C0F801808189835B
:105040000E5F1F4F44244394512C540115C0380166
:10505000F2E06F0E711CF801A080B18026FF03C042
:10506000652D70E002C06FEF7FEFC5012C870E94B5
:105070003D2C2C0183012C852F77222E17C038015F
:10508000F2E06F0E711CF801A080B18026FF03C012
:10509000652D70E002C06FEF7FEFC5012C870E9485
:1050A000322C2C012C852068222E830123FC1BC06E
:1050B000832D90E048165906B0F4B70180E290E0E5
:1050C0000E94862C3A94F4CFF50127FC859127FEA7
:1050D00081915F01B70190E00E94862C31103A94D3
:1050E000F1E04F1A51084114510471F7E5C08436BC
:1050F00011F0893639F5F80127FF07C06081718109
:10510000828193810C5F1F4F08C060817181072EDF
:10511000000C880B990B0E5F1F4F2F76722E97FF96
:1051200009C090958095709561957F4F8F4F9F4FE7
:105130002068722E2AE030E0A4010E94D72CA82E0D
:10514000A81844C0853729F42F7EB22E2AE030E01B
:1051500025C0F22FF97FBF2E8F36C1F018F48835A5
:1051600079F0B4C0803719F0883721F0AFC02F2F05
:105170002061B22EB4FE0DC08B2D8460B82E09C004
:1051800024FF0AC09F2F9660B92E06C028E030E0A9
:1051900005C020E130E002C020E132E0F801B7FEB6
:1051A00007C060817181828193810C5F1F4F06C0AF
:1051B0006081718180E090E00E5F1F4FA4010E942A
:1051C000D72CA82EA818FB2DFF777F2E76FE0BC0BC
:1051D000372D3E7FA51450F474FE0AC072FC08C03F
:1051E000372D3E7E05C0BA2C372D03C0BA2C01C026
:1051F000B52C34FF0DC0FE01EA0DF11D8081803316
:1052000011F4397E09C032FF06C0B394B39404C0D0
:10521000832F867809F0B39433FD13C030FF06C0A6
:105220005A2CB31418F4530C5B18B32CB31468F451
:10523000B70180E290E03C870E94862CB3943C85C5
:10524000F5CFB31410F43B1801C0312C34FF12C059
:10525000B70180E390E03C870E94862C3C8532FFBA
:1052600017C031FD03C088E790E002C088E590E0F8
:10527000B7010CC0832F867859F031FF02C08BE252
:1052800001C080E237FD8DE2B70190E00E94862CDC
:10529000A51438F4B70180E390E00E94862C5A945C
:1052A000F7CFAA94F401EA0DF11D8081B70190E0D7
:1052B0000E94862CA110F5CF332009F451CEB701FE
:1052C00080E290E00E94862C3A94F6CFF701868126
:1052D000978102C08FEF9FEF2C96E2E10C94602E35
:1052E00020FD09C0FC0123FD05C022FF02C073831D
:1052F000628351834083089544FD10C046FD10C071
:10530000DB01FC01AA0FBB1FEE1FFF1F1094D1F79A
:105310006A0F7B1F8E1F9F1F31E003C033E001C067
:1053200034E0660F771F881F991F3150D1F7620F45
:10533000711D811D911D08950F931F93CF93DF93CE
:105340008C01C8010E94482CEC0197FD08C00E9406
:105350001E2C892BB1F7B801CE010E94BE2CCE01C4
:10536000DF91CF911F910F910895A1E0B0E0EBEB99
:10537000F9E20C944A2E8C01C62E7A0129830E94F0
:10538000482CAC01552729814B32510521F04D3273
:10539000510569F42068CA94C11002C080E076C04B
:1053A000C80129830E94482C298197FDF7CF322F0D
:1053B0003D7FD32E322F307349F5803339F5BB242E
:1053C000BA94BC0C09F44EC0C80129830E94482C31
:1053D000298197FD47C0382F3F7D383569F48D2DE1
:1053E0008264D82ECA94CA94CC20E1F1C8010E94EC
:1053F000482C97FF0BC036C026FF04C02D2D22601D
:10540000D22E03C03D2D3261D32ECB2C812C912C7A
:10541000540120ED280F283080F0D4FE04C0B801DC
:105420000E94BE2C1CC02A3040F0D6FEF8CF2F7D43
:105430003FEE320F363098F727504D2DC501B4019D
:105440000E947C294B015C018D2D8260D82ECA946C
:10545000CC2059F0C8010E94482C97FFDACFD1FC2C
:1054600004C09CCF812C912C5401D7FE08C0B0946D
:10547000A09490948094811C911CA11CB11C2D2D92
:10548000B501A401C7010E94702981E02196ECE0DA
:105490000C94662EA1E2B0E0E0E5FAE20C94482E0E
:1054A0005C017A01CE0101966C0180E2F601119255
:1054B0008A95E9F7F501838040E050E0912C712C4A
:1054C00070E0A1E0B0E0F90183FC859183FE819159
:1054D0008F01982F9F01811103C080E090E07CC074
:1054E0008E3519F44115510549F1E72FF0E0E41725
:1054F000F5073CF48D3559F18D3219F4772001F11F
:1055000003C0711001C0982E892F869586958695C7
:105510008601080F111D892F87703D0101C0660C9F
:105520008A95EAF7F801808186298083991559F0D8
:10553000991510F49F5FE8CF9150E6CF71E004C059
:105540007724739401C0712C4F5F5F4FBCCF7720DD
:1055500019F08E8180628E83711103C09924939417
:1055600016C0F6019E012F5D3F4F8081809581938B
:10557000E217F307D1F7F2CFE114F10429F0F701B4
:105580008083C70101967C016150912CF9F0C5011F
:1055900069A30E94482C69A197FD16C0282F269563
:1055A00026952695F601E20FF11D208130E0AC0131
:1055B0004770552702C0359527954A95E2F720FD9B
:1055C000DBCFB5010E94BE2C911087CFE114F1040E
:1055D00011F0F7011082C801A196EEE00C94642E40
:1055E0004F925F927F928F929F92AF92BF92CF9293
:1055F000DF92EF92FF920F931F93CF93DF931F924F
:10560000CDB7DEB76C012B015A01FC01178216825F
:10561000712CF601F380F201F3FC8591F3FE819188
:10562000382F2F01882309F4F3C090E039830E94BA
:105630001E2C3981892B21F0C6010E949C29E9CFBB
:10564000353241F4F201F3FC3591F3FE31912F0133
:10565000353269F4C60139830E94482C398197FD9F
:10566000D5C03817B1F2B6010E94BE2CD1C03A3273
:1056700039F4F3FC3591F3FE31912F0151E001C073
:1056800050E0420110E020ED230F2A3090F45260E8
:10569000612F70E080E090E040E259830E947C2915
:1056A000162FF401F3FC3591F3FE31914F0159812E
:1056B000EACF052F232F240151FF03C0111102C08F
:1056C000A7C01FEF383619F03C3659F011C0F4016D
:1056D000F3FC2591F3FE21912F01283649F4052F83
:1056E00008600460F201F3FC2591F3FE21912F0183
:1056F000222309F48DC0622F70E083ED9FE029839F
:105700000E94272C2981892B09F482C000FD07C043
:10571000F501E080F180C50102965C0102C0E12C38
:10572000F12C2E3651F4F6014681578160E070E08D
:10573000202FC7010E9470296CCF233691F401FFFE
:1057400011E0C6010E94482C97FD60C0E114F104ED
:1057500029F0F7018083C70101967C01115089F778
:1057600051C02B3559F49201A701612FC6010E9447
:105770004A2A2C01892B09F045C03FC0C601298364
:105780000E949C29298197FD41C02F3659F128F4A8
:10579000243631F1293649F127C0233769F02537FE
:1057A000F9F022C0E114F10429F0F7018082C70169
:1057B00001967C01115071F0C6010E94482C4C01E9
:1057C00097FD08C00E941E2C892B61F3B601C4010D
:1057D0000E94BE2CE114F104A9F0F701108212C05E
:1057E000006203C0006101C00064202FA701612F87
:1057F000C6010E94B529811105C0F601838180731D
:1058000029F406C000FD05CF739403CF772019F06B
:10581000872D90E002C08FEF9FEF0F90DF91CF9127
:105820001F910F91FF90EF90DF90CF90BF90AF90BE
:105830009F908F907F905F904F90089591110C945E
:10584000352D803219F089508550C8F70895FC0134
:105850000590061621F00020D9F7C0010895319770
:10586000CF010895FC010590615070400110D8F7F8
:10587000809590958E0F9F1F0895FC016150704098
:1058800001900110D8F7809590958E0F9F1F089575
:10589000CF93DF93EC012B8120FF33C026FF0AC09A
:1058A0002F7B2B838E819F8101969F838E838A819C
:1058B00090E029C022FF0FC0E881F9818081082E85
:1058C000000C990B009719F420622B831AC03196B3
:1058D000F983E8830EC0EA85FB85099597FF09C027
:1058E0002B81019611F080E201C080E1822B8B8335
:1058F00008C02E813F812F5F3F4F3F832E83992722
:1059000002C08FEF9FEFDF91CF9108950F931F9308
:10591000CF93DF93FB01238121FD03C08FEF9FEF26
:1059200028C022FF16C04681578124813581421745
:10593000530744F4A081B1819D012F5F3F4F318314
:1059400020838C93268137812F5F3F4F37832683B7
:1059500010C0EB01092F182F0084F185E02D099567
:10596000892BE1F68E819F8101969F838E83812F03
:10597000902FDF91CF911F910F910895FB0123810B
:1059800020FF12C026FD10C08F3F3FEF930761F04C
:1059900082832F7D20642383268137812150310922
:1059A00037832683992708958FEF9FEF0895FA0193
:1059B000AA27283051F1203181F1E8946F936E7F4E
:1059C0006E5F7F4F8F4F9F4FAF4FB1E03ED0B4E03F
:1059D0003CD0670F781F891F9A1FA11D680F791F80
:1059E0008A1F911DA11D6A0F711D811D911DA11D91
:1059F00020D009F468943F912AE0269F11243019A1
:105A0000305D3193DEF6CF010895462F4770405D3B
:105A10004193B3E00FD0C9F7F6CF462F4F70405DEA
:105A20004A3318F0495D31FD4052419302D0A9F745
:105A3000EACFB4E0A6959795879577956795BA953F
:105A4000C9F700976105710508959B01AC010A2E05
:105A500006945795479537952795BA95C9F7620FDC
:105A6000731F841F951FA01D0895992788270895E7
:105A7000FC0188279927E89421912032E9F3293005
:105A800010F02E30C8F32B3241F02D3239F46894E7
:105A900004C00E94712D820F911D219120532A3044
:105AA000C0F31EF4909581959F4F0895FB01DC0192
:105AB0008D91059080190110D9F3990B0895FB0180
:105AC000DC0105900D920020E1F70895BB274A30D4
:105AD00031F4992322F4BDE2909581959F4F0C9467
