:100000000C94D5080C94E4110C94BD110C94FD08CB
:100010000C94FD080C94FD080C94FD080C94FD084C
:100020000C94FD080C94FD080C94FD080C94920FA0
:100030000C94FD080C94FD080C94FD080C94FD082C
:100040000C9473110C94FD080C941E0A0C94F8097E
:100050000C94FD080C94FD080C94FD080C94FD080C
:100060000C94FD080C94FD080000000023002600FD
:10007000290004040404040404040202020202022B
:10008000030303030303010204081020408001025C
:1000900004081020010204081020000000080002DB
:1000A00001000003040700000000000000006F765C
:1000B0006572666C6F7700636C692E73746172741D
:1000C0000D00636C692E73746F700D00636C692E84
:1000D000707265760D00636C692E766F6C2B0D0067
:1000E000636C692E73746F700D00636C692E73748A
:1000F0006172740D0022290D00636C692E706C61B1
:1001000079282200636C692E766F6C2D0D00636C6C
:10011000692E6E6578740D00636C692E696E666F6A
:100120000D0022290D000D7379732E747A6F282229
:100130000001060D00FE09016602D620FFFE0BFE3F
:100140000AFE0D0060221969808080808080800016
:1001500080183363A0A0A00357675050F850F850A0
:10016000500259692078A0A0702828F0200259690F
:1001700048A85010204050A89002586840A0A040C5
:10018000A0989068281363808080113B6B204040CA
:100190008080808080404020113B6B804040202048
:1001A00020202040408006556520A870A8200455D6
:1001B000652020F82020113363604080065161F8EB
:1001C00011336340E0400259690808101020404094
:1001D0008080025969205088888888885020025978
:1001E000692060A02020202020F8025969708888AA
:1001F0000810204080F8025969F80810207008089B
:100200008870025969101030505090F8101002593F
:1002100069F88080B0C808088870025969708880C1
:1002200080F088888870025969F8081010202040F2
:10023000404002596970888888708888887002599F
:100240006970888888780808887011386840E040AC
:10025000000040E04011386840E04000006040800D
:10026000025969081020408040201008045464F8A6
:100270000000F802596980402010081020408002D8
:1002800059697088880810202000200259697088F8
:100290008898A8A8B080780259692050888888F882
:1002A000888888025969F048484870484848F002F0
:1002B0005969708880808080808870025969F04810
:1002C000484848484848F0025969F8808080F080E2
:1002D0008080F8025969F8808080F08080808002F8
:1002E00059697088808080988888700259698888E8
:1002F0008888F888888888123969E0404040404002
:100300004040E0025969381010101010109060023F
:100310005969888890A0C0A0908888025969808017
:10032000808080808080F80259698888D8A8A88851
:1003300088888802596988C8C8A8A89898888802B7
:100340005969708888888888888870025969F08817
:100350008888F080808080015A6A708888888888C0
:1003600088A87008025969F0888888F0A090888869
:10037000025969708880807008088870025969F88D
:100380002020202020202020025969888888888801
:100390008888887002596988888888505050202041
:1003A00002596988888888A8A8A8A850025969882D
:1003B00088505020505088880259698888505020B1
:1003C00020202020025969F808101020404080F8B1
:1003D000113B6BE0808080808080808080E00259CB
:1003E00069808040402010100808113B6BE02020FD
:1003F00020202020202020E0085363205088015135
:1004000061F82A22628040025666700878889868EF
:10041000025969808080F088888888F0025666706A
:1004200088808088700259690808087888888888D8
:10043000780256667088F8808870025969304840A2
:1004400040F04040404000586870888888780888AC
:1004500070025969808080B0C8888888881238689E
:100460004000C040404040E0004A6A100030101098
:10047000101090906002596980808090A0C0A09078
:1004800088123969C040404040404040E002566612
:10049000D0A8A8A8A888025666B0C888888888020C
:1004A0005666708888888870005868F0888888F058
:1004B0008080800058687888888878080808025604
:1004C00066B0C88080808002566670886010887030
:1004D0000258684040F040404048300256668888E4
:1004E0008888986802566688888850502002566628
:1004F0008888A8A8A85002566688502020508800F6
:1005000058688888889868088870025666F81020AD
:100510004080F8015B6B1820202020C02020202084
:1005200018221969808080808080808080015B6BC8
:10053000C0202020201820202020C008536348A875
:1005400090FFFFFFFFFFFFFFFFFFFFFFFFFFFFFF2A
:10055000FFFFFFFFFFFFFFFFFFFFFFFFFFFFFFFFAB
:10056000FFFF0D00602219698000808080808080FC
:10057000800358682070A8A0A0A870200259693094
:10058000484040E0404048B0035666887050507084
:100590008802596988885050F820F820202219696B
:1005A000808080800080808080124A6A60908060B5
:1005B0009090601090601A3262A0A0035969708810
:1005C000A8D8C8D8A88870045767700878887800B9
:1005D000F80356662850A0A05028045363F8080872
:1005E000163161E00359697088E8D8D8E8D8887076
:1005F0000A5161F8174464609090600357672020A7
:10060000F8202000F807356540A02040E007356558
:1006100040A04020C02A2262408000586888888814
:100620008898E8808002596978E8E8E8E86828282E
:1006300028262161C0202262408007356540C040E5
:1006400040E0045767708888887000F8035666A0F9
:1006500050282850A0025A6A40C04040E00818289C
:100660003808025A6A40C04040E01028081038029A
:100670005A6A40A04020A04818283808025969202A
:100680000020204080888870025A6A402000205054
:100690008888F88888025A6A10200020508888F8D4
:1006A0008888025A6A30480020508888F888880272
:1006B0005A6A28500020508888F88888025A6A5060
:1006C000500020508888F88888025A6A20502020DC
:1006D000508888F8888802596958A0A0A0B0E0A086
:1006E000A0B8005B6B70888080808080887020401C
:1006F000025A6A402000F88080F08080F8025A6A2E
:10070000102000F88080F08080F8025A6A3048009B
:10071000F88080F08080F8025A6A505000F880809B
:10072000F08080F8123A6A804000E040404040404B
:10073000E0123A6A204000E04040404040E0124A67
:100740006A609000E04040404040E0123A6AA0A059
:1007500000E04040404040E0025969F0484848E825
:10076000484848F0025A6A2850008888C8A89888E3
:1007700088025A6A40200070888888888870025AE7
:100780006A10200070888888888870025A6A304809
:100790000070888888888870025A6A28500070889B
:1007A0008888888870025A6A5050007088888888C3
:1007B00088700355658850205088015B6B087098DD
:1007C00098A8A8A8C8C87080025A6A4020008888E3
:1007D0008888888870025A6A1020008888888888EB
:1007E0008870025A6A304800888888888888700231
:1007F0005A6A50500088888888888870025A6A101F
:1008000020008888502020202002596980F08888A4
:1008100088F0808080025969609090A0A0908888BC
:10082000B0025969402000700878889868025969B8
:100830001020007008788898680259693048007064
:100840000878889868025969285000700878889854
:1008500068025969505000700878889868025A6A8E
:1008600030483000700878889868025666702870A2
:10087000A0A8500058687088808088702040025975
:10088000694020007088F880887002596910200043
:100890007088F88088700259693048007088F88044
:1008A00088700259695050007088F8808870123939
:1008B00069804000C040404040E01239692040005B
:1008C000C040404040E0124969609000C040404054
:1008D00040E0123969A0A000C040404040E0025A08
:1008E0006A50206010708888888870025969285082
:1008F00000B0C888888888025969402000708888BC
:100900008888700259691020007088888888700271
:100910005969304800708888888870025969285061
:1009200000708888888870025969505000708888E3
:10093000888870035767202000F80020200158683D
:10094000087098A8A8C8708002596940200088885B
:100950008888986802596910200088888888986873
:100960000259693048008888888898680259695017
:100970005000888888889868005B6B102000888801
:10098000889868088870005A6A8080B0C88888C8CB
:10099000B08080005B6B5050008888889868088819
:1009A0007001060A00FE070136026820FFFE08FEFD
:1009B00007FE0A0060221767808080808000801612
:1009C0003363A0A0A00257675050F850F85050026F
:1009D00057672070A07028702002576748A85020E1
:1009E00050A89002576740A0A040A89068261363C3
:1009F00080808012376720408080804020123767D7
:100A0000804020202040800355658850F85088039E
:100A100055652020F8202011336360408005516126
:100A2000F811336340E04002576708081020408007
:100A300080025767205088888850200257672060BE
:100A4000A0202020F8025767708808304080F80204
:100A50005767F808103008887002576710305090B8
:100A6000F81010025767F880B0C8088870025767FE
:100A7000304080B0C88870025767F80810102040D6
:100A8000400257677088887088887002576770883E
:100A9000986808106011376740E0400040E040115E
:100AA000376740E040006040801247671020408078
:100AB000402010045363F800F8124767804020106C
:100AC000204080025767708810202000200257675E
:100AD000708898A8B0807002576720508888F8887E
:100AE00088025767F04848704848F0025767708896
:100AF0008080808870025767F04848484848F00274
:100B00005767F88080F08080F8025767F88080F09F
:100B1000808080025767708880809888700257674D
:100B2000888888F8888888123767E04040404040CD
:100B3000E0025767381010101090600257678890D5
:100B4000A0C0A09088025767808080808080F802D3
:100B500057678888D8A88888880257678888C8A86F
:100B600098888802576770888888888870025767D5
:100B7000F08888F08080800158687088888888A80C
:100B80007008025767F08888F0A090880257677055
:100B9000888070088870025767F820202020202065
:100BA000025767888888888888700257678888888D
:100BB00050505020025767888888A8A8D8880257C4
:100BC000678888502050888802576788885020207E
:100BD0002020025767F80810204080F8123767E09D
:100BE0008080808080E00257678080402010080865
:100BF000123767E02020202020E006536320508831
:100C0000015161F828226280400255657008788899
:100C1000780257678080B0C888C8B0025565708870
:100C20008088700257670808689888986802556538
:100C30007088F88070025767304840F040404000AC
:100C40005767788888780888700257678080B0C8AE
:100C50008888881237674000C0404040E0104969EA
:100C600010003010101090906002576780808890BC
:100C7000E09088123767C04040404040E002556530
:100C8000D0A8A8A888025565B0C88888880255658C
:100C90007088888870005767B0C888C8B0808000A6
:100CA000576768988898680808025565B0C88080BA
:100CB0008002556570807008F00257674040F04030
:100CC000404830025565888888986802556588884C
:100CD0005050200255658888A8A850025565885054
:100CE0002050880057678888986808887002556582
:100CF000F8102040F8124767304020C020403022D2
:100D0000176780808080808080124767C0204030D5
:100D10004020C006536348A890FFFFFFFFFFFFFF7E
:100D2000FFFFFFFFFFFFFFFFFFFFFFFFFFFFFFFFD3
:100D3000FFFFFFFFFFFFFFFFFFFF0A0060221767B3
:100D4000800080808080800157672078A0A0A078F4
:100D500020025767304840E04048B002556588702F
:100D600050708801586888885020F8202020221769
:100D700067808080008080800158687080E09048A3
:100D8000380870193161A00257677088A8C8A88810
:100D9000701346667090B05000F00265652448906C
:100DA0004824144262F010154161F00257677088C0
:100DB000E8C8C88870095161F816336340A0400242
:100DC00056662020F82020F815456560902040F0F8
:100DD000154565E0106010E02822624080015666EB
:100DE000888888C8B08002576778E8E8682828288B
:100DF00025116180202262408015356540C0404049
:100E0000E01346666090906000F0026565904824AB
:100E1000489001696940C04040E40C143C040169F9
:100E20006940C04040E81404081C015969C02040D2
:100E300020C81828780802576720002020408870B2
:100E40000258684020708888F88888025868102006
:100E5000708888F888880258682050708888F888D8
:100E60008802586848B0708888F8888802586850A6
:100E700000708888F888880258682050708888F840
:100E800088880267673C50909CF0909C005969707C
:100E9000888080808870204002586840F88080F008
:100EA0008080F802586810F88080F08080F802583E
:100EB0006820F88080F08080F802586850F88080C0
:100EC000F08080F81238688040E040404040E012F6
:100ED00038682040E040404040E012386840A0E0E0
:100EE00040404040E0123868A000E040404040E010
:100EF000025767F04848E84848F002586828508888
:100F0000C8A89888880258684020708888888870A7
:100F100002586810207088888888700258682050AD
:100F200070888888887002586828507088888888F7
:100F300070025868500070888888887002556588EB
:100F400050205088025767709898A8C8C8700258F7
:100F500068402088888888887002586810208888AF
:100F600088888870025868205000888888887002B5
:100F700058685000888888888870025868102088CF
:100F8000885020202002576780F088F080808002FF
:100F90005767708890A09088B00258684020007011
:100FA00008788878025868102000700878887802DD
:100FB00058682050007008788878025868285000D7
:100FC000700878887802576750007008788878022F
:100FD0005868205020700878887802656578147CFD
:100FE000907C005767708880887020400258684065
:100FF00020007088F880700258681020007088F80F
:1010000080700258682050007088F880700257671E
:1010100050007088F88070123868804000C04040EE
:1010200040E0123868408000C0404040E01238681C
:1010300040A000C0404040E0123767A000C04040E0
:1010400040E0025767C0307088888870025868286E
:101050005000B0C88888880258684020007088888E
:10106000887002586810200070888888700258685C
:101070002050007088888870025868285000708856
:10108000888870025767500070888888700355659B
:101090002000F800200255657898A8C8F00258682A
:1010A0004020008888889868025868102000888846
:1010B0008898680258682050008888889868025785
:1010C0006750008888889868005969102088889837
:1010D0006808887000586880F0888888F0808000F0
:1010E0005969500088889868088870202D2000FF72
:1010F000E0FFD1AFFF32FFD0FFFEFFE0FFD1AEFF38
:10110000D0FFFEFFE0FFD11000FFFEFFD0FFE0FFA9
:10111000C1FFD1AED580A83FD300408D142000A1DF
:10112000C8DA1281CFD9F1DB402EA4A6AFFFD0FFE1
:10113000FE00000000240027002A00000000002517
:101140000028002B0053544F505045440059494E3D
:101150004723004D45534554233A2000537461748E
:10116000696F6E2049703A200053544F50504544E7
:101170000053544F505045440049435930233A20BE
:101180000049435934233A20004D455441233A2025
:101190000056532056657273696F6E006364696E02
:1011A0006F70737578585B00242411241FBECFEF35
:1011B000D8E0DEBFCDBF12E0A0E0B1E0E4E4FCE5A2
:1011C00002C005900D92A031B107D9F728E0A0E147
:1011D000B2E001C01D92AB32B207E1F718E0C5EDF5
:1011E000D8E004C02197FE010E942F25C43DD107FD
:1011F000C9F70E94061F0C94202E0C940000CF9279
:10120000DF92EF92FF920F931F93CF93DF936C01C6
:101210007A018B01C0E0D0E0CE15DF0589F0D8015E
:101220006D918D01D601ED91FC910190F081E02D41
:10123000C6010995892B11F47E0102C02196ECCFDD
:10124000C701DF91CF911F910F91FF90EF90DF9039
:10125000CF900895FC01918D828D981761F0828D59
:10126000DF01A80FB11D5D968C91928D9F5F9F73DA
:10127000928F90E008958FEF9FEF0895FC01918D7C
:10128000828D981731F0828DE80FF11D858D90E0E9
:1012900008958FEF9FEF0895FC01918D228D892F86
:1012A00090E0805C9F4F821B91098F73992708956E
:1012B00082EB95E00E944C0921E0892B09F420E0A3
:1012C000822F0895FC01848DDF01A80FB11DA35A60
:1012D000BF4F2C91848D90E001968F739927848F56
:1012E000A689B7892C93A089B1898C9180648C934D
:1012F000938D848D981306C00288F389E02D808138
:101300008F7D80830895EF92FF920F931F93CF9369
:10131000DF93EC0181E0888F9B8D8C8D981305C045
:10132000E889F989808185FD24C0F62E0B8D10E0B7
:101330000F5F1F4F0F731127E02E8C8DE8120CC02A
:101340000FB607FCFACFE889F989808185FFF5CFD0
:10135000CE010E946209F1CF8B8DFE01E80FF11DD5
:10136000E35AFF4FF0820B8FEA89FB89808180620C
:1013700007C0EE89FF896083E889F98980818064EC
:10138000808381E090E0DF91CF911F910F91FF90DA
:10139000EF900895CF93DF93EC01888D8823C9F0F7
:1013A000EA89FB89808185FD05C0A889B9898C916E
:1013B00086FD0FC00FB607FCF5CF808185FFF2CF09
:1013C000A889B9898C9185FFEDCFCE010E94620971
:1013D000E7CFDF91CF91089580E090E0892B29F04D
:1013E0000E94580981110C94000008950E94CC2697
:1013F0001F920F920FB60F9211242F933F934F938A
:101400005F936F937F938F939F93AF93BF93EF936C
:10141000FF9382EB95E00E946209FF91EF91BF91EB
:10142000AF919F918F917F916F915F914F913F917C
:101430002F910F900FBE0F901F9018951F920F9233
:101440000FB60F9211242F938F939F93EF93FF93D7
:10145000E091C205F091C3058081E091C805F0914B
:10146000C90582FD12C090818091CB058F5F8F737B
:101470002091CC05821751F0E091CB05F0E0EE54BD
:10148000FA4F958F8093CB0501C08081FF91EF913A
:101490009F918F912F910F900FBE0F901F901895D5
:1014A000CF93DF93282F30E0F901E656FF4F849168
:1014B000F901EA57FF4FD491F901EE58FF4FC4915B
:1014C000CC2391F081110E943310EC2FF0E0EE0F4D
:1014D000FF1FE859FF4FA591B491EC91ED2381E0F6
:1014E00090E021F480E002C080E090E0DF91CF91B5
:1014F00008952EE93FE0009729F0F9013197F1F7BF
:101500000197F9CF089510922302109222020895B4
:1015100080932E021092B90084FF02C08CE001C0BB
:1015200088E48093B8000C94830ADB011496ED9153
:10153000FC91159720E030E065E00994DB011496FA
:10154000ED91FC91159720E030E062E00994DB0119
:101550001496ED91FC91159720E030E063E009943A
:10156000CF92DF92EF92FF920F931F93CF93DF936F
:101570008C017B016A0180E0F601C49181110BC0EE
:10158000CF3F09F44CC04C2FB701C8010E94950A07
:10159000811143C049C0CF3F11F44FEFF5CFCE3F8B
:1015A00009F444C0C03FC8F5C03E38F04C2F4F701E
:1015B000B701C8010E949E0A30C0C03D38F04C2FD0
:1015C0004F70B701C8010E94A70A27C0C03CF8F0BD
:1015D000D7011496ED91FC91159720E030E040E0A2
:1015E00064E0C8010995C295C07FCE5FD0E0CE010E
:1015F0000E94790AD7011496ED91FC91159720E08D
:1016000030E041E064E0C8010995CE0104C0C7FDA7
:1016100004C08C2F90E00E94790A80E001C081E034
:10162000BFEFCB1ADB0AA8CF80E001C081E0DF91D9
:10163000CF911F910F91FF90EF90DF90CF90089581
:10164000AF92BF92CF92DF92EF92FF920F931F93D0
:10165000CF93DF936C018B01F42EE90180E14817F1
:1016600009F468C08417F8F0AAE04A1721F1BFE036
:101670004B136AC041E0C6010E94A70A40E0B801CE
:10168000C6010E949E0A41E8B801C6010E94950A5F
:101690004881B801C6010E94950A40E0B801C60120
:1016A0000E94A70A1FC1E1E14E1709F446C0F5E107
:1016B0004F1799F049C0DB011496ED91FC911597F5
:1016C00020E030E042E061E0C60109954BE051E1E5
:1016D000B801C6010E94B00A37C0FB01A280B380E6
:1016E00043E051E1C6010E94B00AD50118964C9121
:1016F000406BB801C6010E94950A41E0B801C601DD
:101700000E949E0AF50123853485D8011496ED9137
:10171000FC911597D50119964C9166E0C601099583
:10172000811102C080E0DFC040E0B801C6010E9424
:10173000A70A0AC04AEF50E102C04FEE50E1B801DB
:10174000C6010E94B00ACEC0F80102811381F2E303
:10175000FF1609F488C0FF15B8F085E1F81609F402
:101760008FC0A7E1FA1609F4A1C0B4E1FB12BAC018
:10177000D8011B96ED91FC911C9719968D919C9127
:101780001A978E0F9F1F74C0E6E4FE1609F49FC0DF
:10179000F7E4FF1609F4A1C08BE3F812A3C08A8115
:1017A0009B812D81213029F0233039F4BC01089729
:1017B00005C0BC01685F7F4F01C0BC0131E0D801AA
:1017C00016964D915C9117974817590708F430E029
:1017D00041E0D8011496ED91FC9115976E177F07A3
:1017E00008F440E051E06817790708F050E0832FD3
:1017F000852B482319F4352309F474C0BC802130AB
:1018000079F040F0223081F02330A1F4CC24CA9446
:10181000DC2C12C0C12CD12CEE24E394F12C0EC090
:10182000CC24C394D12C08C0C12CD12CEE24EA9432
:10183000FE2C04C0C12CD12CE12CF12CB7FE04C02D
:10184000BE01C8010E94AE12888199818E0D9F1D34
:10185000998388838A819B818C0D9D1D9B838A83BC
:10186000BB0C61F73FC0BE01C8010E94AE123AC076
:101870001192E817F907E1F7C8010E94ED1232C092
:10188000C8010E94CD12882309F44CCFD8011B96C1
:10189000ED91FC911C9719968D919C911A978E0F42
:1018A0009F1F1192E817F907E1F71CC019821882EF
:1018B000F801848195819B838A8381859285019734
:1018C0009D838C83868197819F838E830BC0D801F3
:1018D00019968D919C911A9703C0F801828193818A
:1018E0009983888381E0DF91CF911F910F91FF90C1
:1018F000EF90DF90CF90BF90AF900895CF93DF939C
:10190000EC01E881F9813697808191818C0F9D1FD0
:10191000DC01ED91FC910190F081E02D0995209181
:10192000240788819981263061F5E0912207F091A2
:1019300023072281338128333D4018F122813381EE
:101940002A303641F0F42481358128333D40C8F0F7
:10195000248135812A303641A0F426813781273A07
:10196000314078F026813781233C324050F4228583
:101970003385273A314028F022853385233C324095
:10198000B0F0FC0136978081918160EA71E18C0FA3
:101990009D1F0E94951A882319F1E881F9813697D5
:1019A00020813181C20FD31F97E09A8319C0FC01B7
:1019B00036970190F081E02DEC0FFD1F1186E88134
:1019C000F981369780819181C80FD91F8FEF9FEFE2
:1019D000DC018B839C83AD83BE8387E08A8381E0B7
:1019E000DF91CF9108950F931F93CF93DF938C01D5
:1019F000DC01ED91FC913897C081D181C80FD91FCE
:101A0000E881F9813697808191818C0F9D1FDC01DF
:101A1000ED91FC910190F081E02D099580912407D2
:101A200028813981843009F040C0E0912207F0918B
:101A300023078281938180379A41B8F18281938113
:101A400082319C4290F5848195818C39964068F171
:101A50008481958186309B4040F586819781873AC5
:101A6000914018F186819781833C9240F0F4F9010E
:101A700036970190F081E02DEC0FFD1F1186E88173
:101A8000F981369780819181C80FD91F8FEF9FEF21
:101A9000DC018B839C83AD83BE8381E08A8381E0FC
:101AA000DF91CF911F910F910895F90136978081B1
:101AB000918160E473E28C0F9D1F0E94951A882328
:101AC00041F0E881F981369780819181C80FD91F53
:101AD000E4CFD801ED91FC913A9780819181800FFC
:101AE000911FDF91CF911F910F910C947E0CDC011F
:101AF000ED91FC91389720813181820F931F0C94D6
:101B0000F30CAF92BF92CF92DF92EF92FF920F93BE
:101B10001F93CF93DF931F92CDB7DEB7DC01A95B94
:101B2000BF4F0D911C915C0135E4A30EB11CD50192
:101B3000CD90DC907C01B4E0EB0EF11CDC015D96F5
:101B4000ED91FC915E97C70169830995AC01400F47
:101B5000511F2981B601C7010E946715F501208137
:101B60003181280F311D87FD3A953183208381E033
:101B700090E00F90DF91CF911F910F91FF90EF9028
:101B8000DF90CF90BF90AF900895FC01E60FF11D5C
:101B9000849190E0982F88273196E4918E0F911DC3
:101BA000089590912302911104C0809323026093C1
:101BB000220208951F93CF93DF9300D0CDB7DEB7F5
:101BC00020ED37E03A8329839091BC00982399F463
:101BD00029813A81232B51F480912E02182F127003
:101BE00081FD09C081E00E94D10D06C029813A81A2
:101BF00021503109E7CF11E0812F0F900F90DF9135
:101C0000CF911F91089584E98093BC0064E080E146
:101C10000C94DA0DCF938093BB0084E88093BC00D2
:101C200063E080E80E94DA0DC82F882389F0809154
:101C30002E02C82FC27081FD0AC08091B900887F32
:101C4000883229F063E082E00E94D10D01C0C1E03A
:101C50008C2FCF910895CF93DF93FC0121A92223EC
:101C600079F0EC010E94E319811102C080E009C003
:101C70008CA5811180E40E940A0E8823B9F319AA69
:101C800081E0DF91CF9108950F931F93CF93C42FDD
:101C900089016330C1F050F4613081F0623009F0A5
:101CA00048C0FC0144A721E021AB43C0663011F1DC
:101CB000673079F1653009F03CC00EC0FC0184A9A1
:101CC0000E94880A36C0FC0114A621E021AB411114
:101CD00030C00E94030E2DC00E942B0E811104C043
:101CE0000E94030E80E026C08C2F0E940A0E8111F4
:101CF00020C0F6CF0E942B0E882391F3CC23C9F08D
:101D0000F80181918F010E940A0E882349F3C15086
:101D1000F5CF0E942B0E882319F3CC2351F0F80144
:101D200084910E940A0E882329F00F5F1F4FC15033
:101D3000F4CF81E0CF911F910F9108950F931F93DE
:101D4000FC0101501109040F151F83AD94ADDF0193
:101D5000DF960D90BC91A02DA417B50720F00817B1
:101D6000190738F403C00817190788F00417150776
:101D700070F421503109260F371F81AD92AD45AD6A
:101D800056AD4617570728F42817390728F480E07E
:101D900009C02817390728F481E02617370710F003
:101DA000F6CF81E01F910F910895E0E1F2E00190FC
:101DB0000020E9F73197E051F240339710F010928C
:101DC0001002E0E1F2E001900020E9F73197E051E4
:101DD000F240FF27E05FFD4F8083118208950F934B
:101DE0001F93CF93DF93EC01FE0101900020E9F7F0
:101DF00032978081803211F41082F6CF8E010F5F0E
:101E00001F4F8881803229F4B801CE010E94EE264E
:101E1000F8CF4BEE50E1052E000C660B770BCE0190
:101E20000E94BF1C22E0C033D20769F4D09387051B
:101E3000C0938605109289051092880510928B0533
:101E400010928A0535C0009719F1FC011082F3E069
:101E5000C230DF0719F023E030E002C021E030E0BB
:101E6000220F331FF901EA57FA4FD183C083C250C2
:101E7000D34019F024E030E002C022E030E0220F2D
:101E8000331FF901EA57FA4F03969183808310C0FC
:101E900083E0C230D80719F083E090E002C081E00F
:101EA00090E0880F991FFC01EA57FA4FD183C08355
:101EB000DF91CF911F910F910895CF93DF931092EF
:101EC000A704C6E8D5E01F821E82ABE7B5E01396F3
:101ED0001C921397E4E1F2E0138219861886149697
:101EE0001C92149714821B861A8615961C921582D2
:101EF000DF91CF9108951092A70410920203E8E8B1
:101F0000F5E081E090E011921192DC01A558BA4F02
:101F10001C92DC01AC5EBD4F1C920196863091058F
:101F200091F708951F920F920FB60F9211248F937D
:101F30009F93AF93BF938091980590919905A0913D
:101F40009A05B0919B050196A11DB11D809398053E
:101F500090939905A0939A05B0939B0580911A02DE
:101F600090911B02019690931B0280931A0280911C
:101F70002F02811103C081E080930601BF91AF91D0
:101F80009F918F910F900FBE0F901F9018950895FD
:101F9000EFE4F6E01782118684E080932907089524
:101FA000DC011496EC91E23070F4E13011F0E89825
:101FB00001C0E998F0E0EE0FFF1FE95FFE4F27EC4C
:101FC0003FE0318320830C94C80FFC0112821382FE
:101FD000148215821682108617821186089508953C
:101FE000DC011B96ED91FC911C9714968D919C91B0
:101FF0001597481B590B4770552781E090E001C0A9
:10200000880F4A95EAF7E60FF71F3081222311F077
:10201000832B02C08095832380830895FC01848DE7
:10202000082E000C990B0196089580E090E0089529
:102030000B96FC01849108950A96FC018491089501
:10204000FC01849108950E942010882321F08230A1
:1020500011F083E0089586E0089568E00C94C50DC2
:1020600066E00C94C50D833081F028F4813099F03E
:102070008230A1F008958730A9F08830B9F084301B
:10208000D1F4809180008F7D03C0809180008F7794
:1020900080938000089584B58F7702C084B58F7DCA
:1020A00084BD08958091B0008F7703C08091B00007
:1020B0008F7D8093B00008951F93CF93DF93282FD7
:1020C00030E0F901E656FF4F8491F901EA57FF4FDE
:1020D000D491F901EE58FF4FC491CC23C9F0162FCB
:1020E00081110E943310EC2FF0E0EE0FFF1FE55C32
:1020F000FE4EA591B4918FB7F894111105C09C9133
:10210000ED2FE095E92302C0EC91ED2BEC938FBF0E
:10211000DF91CF911F910895CF93DF9390E0FC0161
:10212000EA57FF4F2491FC01EE58FF4F849188231A
:1021300061F190E0880F991FFC01EF5CFE4EC591A4
:10214000D491FC01E55CFE4EA591B491611109C0EA
:102150009FB7F8948881209582238883EC912E2361
:102160000BC0623061F49FB7F8943881822F80955C
:1021700083238883EC912E2B2C939FBF06C08FB7AF
:10218000F894E8812E2B28838FBFDF91CF9108959B
:1021900062E080914F060E948C101092210781E02E
:1021A000809329071092240208953FB7F8948091F4
:1021B0002A0290912B02A0912C02B0912D0226B5FB
:1021C000A89B05C02F3F19F00196A11DB11D3FBF6F
:1021D000BA2FA92F982F8827820F911DA11DB11DFD
:1021E000BC01CD0142E0660F771F881F991F4A95F9
:1021F000D1F708958F929F92AF92BF92CF92DF92C4
:10220000EF92FF926B017C010E94D5104B015C01A3
:10221000C114D104E104F104F1F00E94D510DC01F5
:10222000CB0188199909AA09BB09883E9340A105E9
:10223000B10570F321E0C21AD108E108F10888EE77
:10224000880E83E0981EA11CB11CC114D104E104C6
:10225000F10419F7DDCFFF90EF90DF90CF90BF90A2
:10226000AF909F908F900895CF93DF932091570662
:10227000211136C021E020935606209129072430F1
:1022800021F020912402222359F1EC010E94C81070
:102290000E94D51060932507709326078093270727
:1022A000909328078C818230D8F4E82FF0E0EE0F6D
:1022B000FF1FE95FFE4F25E332E131832083813048
:1022C00041F0809169008C7F816080936900E89A79
:1022D00007C080916900837F846080936900E99AD8
:1022E000DF91CF9108951F920F920FB60F92112494
:1022F0002F933F938F939F93AF93BF938091260229
:1023000090912702A0912802B091290230912502D4
:1023100023E0230F2D3720F40196A11DB11D05C028
:1023200026E8230F0296A11DB11D2093250280935C
:10233000260290932702A0932802B093290280914D
:102340002A0290912B02A0912C02B0912D020196AD
:10235000A11DB11D80932A0290932B02A0932C0201
:10236000B0932D02BF91AF919F918F913F912F918B
:102370000F900FBE0F901F9018951F920F920FB6DF
:102380000F9211242F933F934F935F936F937F93FB
:102390008F939F93AF93BF93EF93FF93E0910901C6
:1023A000F0910A010995FF91EF91BF91AF919F9133
:1023B0008F917F916F915F914F913F912F910F90EE
:1023C0000FBE0F901F9018951F920F920FB60F928D
:1023D00011242F933F934F935F936F937F938F932A
:1023E0009F93AF93BF93EF93FF93E0910701F09119
:1023F00008010995FF91EF91BF91AF919F918F9146
:102400007F916F915F914F913F912F910F900FBEF0
:102410000F901F901895CF93C1E0C093570684E0AA
:1024200080932907809150068823E9F08091560611
:102430008823C9F04091210750E0440F551F69E5FA
:1024400076E080912207909123070E94D126809107
:1024500021078093240710925606C09358061092C5
:102460002107C0932907CF910895CF92DF92EF9271
:10247000FF92CF93DF9300D000D0CDB7DEB70E949C
:10248000D51069837A838B839C83C980DA80EB8043
:10249000FC808091250790912607A0912707B09195
:1024A0002807C81AD90AEA0AFB0A8091290784304A
:1024B00009F449C0853019F0813031F51CC0809194
:1024C0005506882339F08091210780FF02C02D9A9C
:1024D00001C02D988091210780FD16C08091510682
:1024E00090915206A0E0B0E08C159D05AE05BF05A9
:1024F00058F481E026C080914F060E94500A892B33
:1025000011F585E080932907E0912107F0E0EE0FB7
:10251000FF1FE75AF94FD182C08289819A81AB812E
:10252000BC818093250790932607A0932707B0933B
:102530002807809121078F5F80932107843618F048
:1025400082E00E940B120F900F900F900F90DF917E
:10255000CF91FF90EF90DF90CF900895FB014281E3
:102560005381DC0114962D913C9115974217530726
:1025700098F016962D913C9117972417350760F027
:102580006081718119962D913C911A97621773079A
:1025900018F426810C94F00F0895FC01808191813C
:1025A00024813581280F391F35832483428153814B
:1025B0002417350780F420852F5F208726813781F7
:1025C000820F931F8417950710F0CA010197978314
:1025D000868381E0089580E00895FC0115821482CD
:1025E0008081918101979783868310860895DB010E
:1025F000ED91FC9109942F923F924F925F926F92CE
:102600007F928F929F92AF92BF92CF92DF92EF9282
:10261000FF920F931F93CF93DF9300D01F92CDB7FC
:10262000DEB77C018901FB01C280D3804B3309F402
:102630007AC028F4473111F14233F1F104C0463435
:1026400041F0473459F09801B601C7010E94F712D2
:10265000ECC09E012F5F3F4F46E404C09E012F5FF8
:102660003F4F47E4B601C7010E94F71289819A8162
:1026700096958795F80191838083D6C047E1B6018E
:102680000E94F712F8018081918196958795918338
:1026900080838481958196958795958384838281B3
:1026A000938196958795938382838681978196956A
:1026B000879597838683B8C0F90180809180880CC4
:1026C000991CA280B380AA0CBB1C91828082B38229
:1026D000A282980142E3B6010E94F7123401FFEF93
:1026E0006F1A7F0AF80171826082B382A282980118
:1026F00042E3B601C7010E94F712FFEFAF1ABF0A0B
:10270000F80171826082B382A282980142E3B6012D
:10271000C7010E94F712F80191828082B382A282DF
:10272000980142E37DC0F9019481558188E0212C14
:10273000312C220C331C220C331C97FF02C0F3E017
:102740002F2A990F8150A9F7F80140805180440C3D
:10275000551CA280B380AA0CBB1C50FF06C03201DE
:10276000FFEF6F1A7F0A450105C045012FEF821A5E
:10277000920A3201F801348251824082B382A282ED
:1027800098014BE3B601C7015B830E94F712F80181
:1027900071826082938282825B81558398014BE3D0
:1027A000B601C7015B830E94F712F80124825B81A6
:1027B000513099F058F05230B9F05330D9F488E0E4
:1027C000A81AB108E8E08E1A910814C0F8E04F0E7C
:1027D000511C28E0620E711C0DC088E0A80EB11CCF
:1027E000E8E08E0E911C06C0F8E04F1A510828E070
:1027F000621A7108F80151824082B382A282558325
:1028000098014BE3B601C7015B830E94F712F80100
:1028100071826082938282825B81558398014BE34F
:10282000B601C7010E94F71281E00F900F900F9040
:10283000DF91CF911F910F91FF90EF90DF90CF909C
:10284000BF90AF909F908F907F906F905F904F90D0
:102850003F902F9008950F931F93CF93DF9300D055
:10286000CDB7DEB78C01FC01648175819E012F5FBD
:102870003F4F46E40E94F71289819A81F8019183C3
:102880008083648175819E012F5F3F4F47E4C801BB
:102890000E94F71289819A81F8019383828364816F
:1028A000758120E030E048E4C8010E94F712F80189
:1028B00085879801275C3F4F6481758147E1C80196
:1028C0000E94F7120F900F90DF91CF911F910F91FF
:1028D00008950F931F93CF93DF93EC010C811D811B
:1028E000EFA9F8AD82E0099520E030E04AE0B801B8
:1028F000CE010E94F712182FEFA9F8AD83E00995D9
:10290000EFA9F8AD80E00995112329F0CE010E94CE
:102910002B1481E001C080E0DF91CF911F910F91D6
:102920000895BF92CF92DF92EF92FF920F931F9381
:10293000CF93DF938C01E62EDC011696CD91DC91CE
:102940001797CE010E942010F82EF80186819781FA
:102950000E942310C82EF1E0FF1203C02FE0B22E18
:1029600002C0BB24BA94D80116968D919C911797FA
:102970000E941C10F82EF801868197810E94181081
:10298000D82ED80116968D919C9117970E942D10E4
:10299000B0E6BE1538F4009729F0C80FD91F91E6AC
:1029A000F92E10C0F801868197810E943010F0E462
:1029B000FE1538F4009729F0C80FD91F81E4F82ECE
:1029C00001C06196DE1490F4D80154961C9254977D
:1029D00057961C92579758961C92589755961C924A
:1029E000559756961C9280E090E067C0DF1460F324
:1029F0008C2D90E0FE0124912F3F11F4219658C0B8
:102A0000FE104DC0D80116968D919C9117970E948B
:102A100020109E012F5F3F4FFE01882311F082306E
:102A2000E1F48491D80157968C935797F90124913A
:102A300058962C935897FE013396E4915496EC9354
:102A40005497FE013496E4915596EC935597FE0108
:102A50003596E4915696EC9320C08491982F9F7000
:102A60009250D80156969C93569782958F705596A2
:102A70008C935597F9012491822F8F7058968C93DF
:102A8000589722952F7057962C935797FE013296A0
:102A9000E491E295EF705496EC93CE010EC0FE01E6
:102AA0003296E491EB219C012E0F311DC20FD31FF2
:102AB000FD1409F489CFF3949DCFDF91CF911F913D
:102AC0000F91FF90EF90DF90CF90BF9008952F92DD
:102AD0003F924F925F926F927F928F929F92AF92AE
:102AE000BF92CF92DF92EF92FF920F931F93CF93FB
:102AF000DF9300D000D0CDB7DEB79C838B833B0142
:102B00007A01622F0E9491145C01892B09F468C03C
:102B1000EB81FC81868197810E942310C82EEB8176
:102B2000FC81D788F08DF983EB81FC818589680E63
:102B3000711C87FD7A94F9810F2F10E0EB81FC81E5
:102B400086899801280F311D87FD3A95E21AF30A0C
:102B50002D2D30E0A701B301CF010E949E0E8823E6
:102B6000D9F185010C0D111D57E05D0D5695569557
:102B7000569557012B803C80F0E22F0E311C452EDC
:102B8000512C8A2D8E199981891730F543016801DE
:102B90008C2D801B8517D0F4F6018491EB81FC818C
:102BA0006481758191A280A2B3A2A2A215A284A37E
:102BB00091014BE3CF015A830E94F712FFEFCF1A26
:102BC000DF0A28E0820E911C5A81E2CF040D151D08
:102BD0003FEFA31AB30AD5CFEB81FC81848901C0F2
:102BE00080E00F900F900F900F90DF91CF911F9189
:102BF0000F91FF90EF90DF90CF90BF90AF909F909C
:102C00008F907F906F905F904F903F902F9008959E
:102C10002F923F924F925F926F927F928F929F92EC
:102C2000AF92BF92CF92DF92EF92FF920F931F93DA
:102C3000CF93DF93CDB7DEB76E970FB6F894DEBFB4
:102C40000FBECDBF88E995E00E94DC1CFC0190938B
:102C50009D0580939C058081282F082E000C330B46
:102C60003F938F938181282F082E000C330B3F93C5
:102C70008F938281282F082E000C330B3F938F9364
:102C8000868197818459984F9F938F938381282FB2
:102C9000082E000C330B3F938F938581282F082E2D
:102CA000000C330B3F938F9388EC91E09F938F93AD
:102CB0009E012F5F3F4F69013F932F930E941E2774
:102CC0000FB6F894DEBF0FBECDBF8091880781118B
:102CD00007C081E08093880783E497E00E9469142D
:102CE00080914707909148070E94601B88248A942E
:102CF000982C33243394209194053091950560915C
:102D0000960570919705C901880F991F880F991F23
:102D1000059736952795821B930B0E949A1C8091EC
:102D20004307909144078435910519F06CE070E0F9
:102D300002C069E070E08091960590919705019737
:102D40000E94751C56E8A52E55E0B52EE12CF12CFD
:102D5000E114F10419F41092690712C03092690766
:102D600093E0E916F10464F0809194059091950543
:102D7000969587950397909393058093920504C049
:102D80009092930580929205F501419151915F01D6
:102D90004115510509F482C0E114F10409F063C042
:102DA00080918105811109C080917B05480F511DDB
:102DB00060E070E081E090E06FC041E855E060E0E5
:102DC00070E081E090E00E94871B80917B0560901D
:102DD000860570908705680E711C20908105222061
:102DE000D9F1622D83E497E00E9491140091580775
:102DF000112701950CF4109531E8432E35E0532E40
:102E0000FFEF4F1A5F0AF2018081882369F09091E9
:102E10005707090F111D97FD1A95282E682F83E477
:102E200097E00E949114ECCFF0E22F1661F0209110
:102E3000580780915A0790E0820F911D27FD9A95BF
:102E4000800F911F0BC0809157079801280F311DEB
:102E500087FD3A95C90102C080E090E0A30160E0DF
:102E600070E0029719C0F701E558FA4F8081480FCA
:102E7000511D8091940590919505E89EB001E99EC1
:102E8000700DF89E700D112480919205909193051C
:102E9000680F791F80E090E00E94871B80918E056B
:102EA00090918F05892BD1F46090790570907A0507
:102EB0003CE0631A710800919605109197051695EC
:102EC0000795C6010E94581C96958795A601B301E7
:102ED000F801E81BF90BCF010E94871BFFEFEF1AE7
:102EE000FF0A26E0E216F10409F032CF0E941E1C10
:102EF000811101CF6E960FB6F894DEBF0FBECDBF25
:102F0000DF91CF911F910F91FF90EF90DF90CF90C5
:102F1000BF90AF909F908F907F906F905F904F90F9
:102F20003F902F900895EF92FF920F931F93CF93AE
:102F3000DF93CDB7DEB7AA970FB6F894DEBF0FBE0A
:102F4000CDBFE4EDF3E09191992301F18EE3890F78
:102F50008230C8F78081282F2F7330E4939FC001FF
:102F60001124822B8083AF01CA01845D9340DA0172
:102F70002D91AD01222329F0CA010297DC012C9387
:102F8000F3CFDC01AD52BC4F1C92DDCF41E951E1E2
:102F9000052E000C660B770B84ED93E00E94BF1C9E
:102FA000892B59F10E947B0F83E291E09093870572
:102FB0008093860587E191E0909389058093880549
:102FC0008BE091E090938B0580938A0510928105A8
:102FD0000E94071C89EB91E090938D0580938C05EE
:102FE0008EE995E090938F0580938E050E940816D8
:102FF00060E08CE00E945C1069C149E851E1052E57
:10300000000C660B770B84ED93E00E94BF1C8C01D3
:10301000892B61F00E945D0FB801695F7F4F42ED1F
:1030200050E087EA94E00E94F526E6C041E851E1CD
:10303000052E000C660B770B84ED93E00E94BF1CFD
:103040008C01892B91F00E945D0FB801695F7F4F61
:1030500042ED50E087EA94E00E94F52687EA94E08A
:1030600090938D0580938C05DAC049E751E1052ED8
:10307000000C660B770B84ED93E00E94BF1C8C0163
:10308000892BC9F00E947B0FF8018781811107C04D
:1030900060E372E082E093E00E94EE2609C0B8018E
:1030A000695F7F4F42ED50E082E093E00E94F52699
:1030B00082E093E0A3C041E751E1052E000C660BCE
:1030C000770B84ED93E00E94BF1C892B69F060E0D0
:1030D0008CE00E945C100E945D0F69E671E187EA56
:1030E00094E00E94FD2C88C04CE551E1052E000CB7
:1030F000660B770B84ED93E00E94BF1C8C01892B3B
:1031000019F10E94071C045F1F4FB8018EE995E07A
:103110000E94E526892B09F4D9C08AE0E82EF12C1B
:10312000FFEFEF1AFF0AD8016C91C70101970E94C7
:10313000412DF80181918F0181508E3F88F360E02D
:10314000C7010E94412DC2C043E551E1052E000C8C
:10315000660B770B84ED93E00E94BF1C009789F10A
:10316000BC01685F7F4F80E392E00E94EE2660E240
:1031700070E080E392E00E94DA268C010F52124048
:10318000A80160E372E081E895E00E94F526F8016D
:10319000EF57FA4F1082E1E8F5E001900020E9F7DF
:1031A0003197BF0161587540605D7D4F42ED50E041
:1031B00080E392E00E94F52680E392E00E94EF0E09
:1031C00085C04DE451E1052E000C660B770B84EDB4
:1031D00093E00E94BF1C892BA1F061E08CE00E946B
:1031E0005C1065E471E187EA94E00E94F42C892B7D
:1031F00009F06CC01092A70487EA94E00E94EF0ED9
:103200000EC067EE71E084ED93E00E940427009702
:1032100009F45CC0DC011B962C91223321F081E083
:103220008093A60453C0BC01655F7F4F8E010F5F82
:103230001F4FC8010E94EE2688E995E00E94DC1C21
:1032400090939D0580939C05CE014F969F938F93FD
:1032500002969F938F9302969F938F9302969F93CC
:103260008F9302969F938F9302969F938F9382EFF3
:1032700091E09F938F931F930F930E944127E091BA
:103280009C05F0919D0589A59AA52FA125832DA1C7
:1032900023832BA1228329A121832F8D20838C5668
:1032A000974097838683CF010E94AA1D609398055B
:1032B0007093990580939A0590939B0581E0809384
:1032C0002F020FB6F894DEBF0FBECDBFAA960FB681
:1032D000F894DEBF0FBECDBFDF91CF911F910F914C
:1032E000FF90EF9008950F931F93CF93DF938C017E
:1032F000C0E0D0E0F801EC0FFD1F6491662371F08F
:10330000E091B205F091B3050190F081E02D82EBE0
:1033100095E00995892B11F02196ECCFCE01DF9134
:10332000CF911F910F910895009769F0FC010190D2
:103330000020E9F73197AF01481B590BBC0182EB24
:1033400095E00C94FF0880E090E00895CF93DF9320
:103350001092570680915806E0912207F0912307BA
:10336000882321F0BF011092580606C080912107E2
:103370008093240769E576E020E0809124072817F0
:10338000E0F4822F90E0880F991FDF01A80FB91F8A
:10339000EB01C80FD91F4881598180913C0790915A
:1033A0003D0720FF03C0919581959109840F951FDA
:1033B00011969C938E932F5FE0CF1092560681E07A
:1033C000DF91CF910895CF9384EA8093BC0061E0B0
:1033D00080E80E94DA0D882359F08091B900887F37
:1033E000883041F0803131F061E082E00E94D10DFF
:1033F000C0E01DC088E78093BB0084E88093BC00D8
:1034000062E080E80E94DA0D882391F380912E0219
:10341000C82FC27081FD0AC08091B900887F8831B1
:1034200029F062E082E00E94D10D01C0C1E08C2F42
:10343000CF910895DF92EF92FF920F931F93CF9356
:10344000DF937C01EB0100E010E0DD24DA94CE0193
:10345000801B910B0897D0F0609147077091480747
:103460001093640700936307F0926607E092650784
:1034700010926807D092670723E637E04BE383E4B6
:1034800097E00E94F712085F1F4FE1CFCE01887FBF
:10349000C770DD27209741F127E0C22760914707D9
:1034A000709148079093640780936307F0926607D2
:1034B000E0926507109268072196C770DD278FEFAD
:1034C00001C0880FCA95EAF78093670723E637E0C3
:1034D0004BE383E497E0DF91CF911F910F91FF9031
:1034E000EF90DF900C94F712DF91CF911F910F9125
:1034F000FF90EF90DF900895EF92FF920F931F934C
:10350000CF93DF937C018B01C0E0D0E0B701CE0107
:103510000E941A1A21960C171D07C1F7DF91CF914F
:103520001F910F91FF90EF9008958F929F92AF920D
:10353000BF92CF92DF92EF92FF920F931F93CF93A0
:10354000DF93EC015B01E881F9810190F081E02DCE
:1035500009951091240780912407843411F080E0AC
:10356000A2C08A85E0902207F090230781112EC027
:10357000A114B10459F1F701C280D380B50180E0F4
:1035800090E00E94D1254B015C0120E030E040E456
:103590005FE30E945F260E94A225C616D706F8F2B6
:1035A000F701C280D38020E030E040EA5FE3C5014C
:1035B000B4010E945F2620E030E040E85FE30E9413
:1035C00036250E94A2256C157D0548F2F7018481FD
:1035D000958188339D4018F2F701848195818A3066
:1035E000964108F0BCCF83E08B8720E030E040E0DC
:1035F00050E060E070E080E090E0DD24DA94D10EED
:10360000AB85EA2FF0E0AD1588F4EE0FFF1FEE0D4D
:10361000FF1D00811181073A114008F4A0CF0190ED
:10362000F081E02DE33CF240A0F099CFDF0111974B
:10363000B7FDDF01B595A795A150A9872B833C83E2
:103640004D835E8300E20E9413252F83388781E03B
:103650002AC011E01A0F1B87F701E10FF11DE10FDE
:10366000F11D00811181053F144060F0008111813E
:103670000534184038F401E00E94F8242160AE5F60
:10368000AB87BECF00811181073A114008F467CFA4
:103690000190F081E02DE33CF24008F060CF01E0C2
:1036A0000E94F824ECCFDF91CF911F910F91FF90F2
:1036B000EF90DF90CF90BF90AF909F908F90089544
:1036C0000F931F93CF93DF938C01CFE3D7E0EBAD44
:1036D000FCAD82E00995EBADFCAD81E0099520E001
:1036E00030E044E1B80183E497E00E94F7122CE750
:1036F00037E047E1B80183E497E00E94F712EBADB1
:10370000FCAD80E0DF91CF911F910F910994AF92B2
:10371000BF92CF92DF92EF92FF920F931F93CF93BE
:10372000DF9300D0CDB7DEB76C017B01E0915C0781
:10373000F0915D0783E497E049835A830995E80E89
:10374000F91E4981A42E5A81B52E00E010E0F50142
:1037500021915F01222371F0A701B60183E497E074
:103760000E946715282F880F330BC20ED31E020F3D
:10377000131FEDCFC8010F900F90DF91CF911F91D4
:103780000F91FF90EF90DF90CF90BF90AF90089592
:103790008091490790914A07009709F437C020911A
:1037A0005E07FC01211107C03596E491E0935F07A5
:1037B000FC013C960FC0213039F43F96E491E09330
:1037C0005F07FC01709606C03D96E491E0935F07A9
:1037D000FC013E96E491E093600780915F07082E1C
:1037E000000C990B20916007821B910927FD93958E
:1037F00020916107203441F0829FC001112426E00E
:10380000969587952A95E1F78093620708950F931F
:103810001F93CF93DF930AE010E0CEE9D5E0C80113
:103820000E94392D89930F5F1F4F81508E3FB8F34F
:103830001882DF91CF911F910F9108950F931F93DD
:10384000CF93E0915507F0915607309719F083E434
:1038500097E009950091470710914807E0917A0792
:10386000F0917B0782E00995E0917A07F0917B0760
:1038700081E0099520E030E045E1B80183E497E07C
:103880000E94F712C82F882341F02CE737E047E168
:10389000B80183E497E00E94F712E0917A07F09173
:1038A0007B0780E009958C2FCF911F910F91089590
:1038B0000F931F93CF93DF938C01C0E0D0E0F8010A
:1038C00061918F01662359F083E497E00E9491147F
:1038D00080915707C80FD11D87FDDA95F0CFCE0133
:1038E000DF91CF911F910F910895EF92FF920F9367
:1038F0001F93CF93DF93EC017B018B019C0140E090
:1039000050E060E070E083E497E00E949E0E882320
:1039100051F0B701CE01DF91CF911F910F91FF9030
:10392000EF900C947C1ADF91CF911F910F91FF9033
:10393000EF900895EF92FF920F931F93CF93DF9331
:10394000EC017B0101E010E09B01AC0160E070E064
:1039500083E497E00E949E0E882351F0B701CE01C8
:10396000DF91CF911F910F91FF90EF900C941A1A55
:10397000DF91CF911F910F91FF90EF900895FA0181
:10398000DC010590002009F40895FA0105907D916D
:10399000772369F07015CD01D1F70590002051F023
:1039A0007C91772321F0701581F71196F6CF882747
:1039B000992708950197089569E178E00E94E31C32
:1039C00089E198E00895A8E0B0E0E9EEFCE10C940C
:1039D000E42D8B01FC01608171818281938120E85B
:1039E00031E541E050E00E94872D69017A012CE326
:1039F00030E040E050E00E94A92D29833A834B83B8
:103A00005C8389819A81AB81BC81F80160836CE31E
:103A100070E00E94732DDC01CB01F801A183828349
:103A2000C601069667E070E00E945F2D84832DEA50
:103A30003EE840E050E0C701B6010E94A92D29836D
:103A40003A836D837E838F83988789819A8124E668
:103A5000289F6001299FD00C11246D817E818F8168
:103A6000988525EB35E040E050E00E94A92D2983A0
:103A70003A836D837E83E980FA80EE0CFF1CEE0CA6
:103A8000FF1CEC0CFD1C8D819E81F5E6EF16F10408
:103A900010F0019604C024E6E216F10419F021E0CA
:103AA00030E002C020E030E0A90144595E4F4817E1
:103AB000590768F46DE671E0821B930B0E94732D29
:103AC000DC01CB01E80EF91ECD0120E030E044E638
:103AD000E40EF11CF801F782E68291878087255C6D
:103AE0003F4F8217930748F46FE170E00E94732DF7
:103AF000DC01CB01F801858322C069E970E0821BFB
:103B0000930B0E94732DDC01CB01F82EFF0CFF0CF0
:103B1000F80E6DE370E0CD010E94732DDC01CB0146
:103B2000E82EEE0C6FE170E0CD010E94732DDC01F8
:103B3000CB0122E0280FF20EFE0CF801F582A383E0
:103B4000F8011386128683818F5F83832896E8E0CD
:103B50000C94002EA4E0B0E0E0EBFDE10C94E42D29
:103B60008C010E94451E69837A838B839C83F801B4
:103B70008285938597FF0EC0E0912908F0912A086D
:103B8000309741F065E278E0CE0101960995F801A1
:103B900093878287F801828593851816190694F415
:103BA000092E000CAA0BBB0B49815A816B817C81C9
:103BB0006A017B01C81AD90AEA0AFB0AC982DA82B9
:103BC000EB82FC8289819A81AB81BC81409125087E
:103BD000509126086091270870912808841B950B46
:103BE000A60BB70B89839A83AB83BC83B801CE0144
:103BF00001960E94031E69817A818B819C812496A3
:103C0000E8E00C94002EA4E0B0E0E9E0FEE10C94C2
:103C1000E42D6C017B01E0912908F0912A0830978E
:103C200029F065E278E009958C0102C00FEF1FEFE3
:103C3000F6014081518162817381809125089091C4
:103C40002608A0912708B0912808480F591F6A1F1D
:103C50007B1F101611064CF4C801012E000CAA0B94
:103C6000BB0B480F591F6A1F7B1F49835A836B8305
:103C70007C83B701CE0101960E94E31CF7011387F4
:103C800002872496E8E00C94002EA0E0B0E0EBE47C
:103C9000FEE10C94E02DEC01EE81FF818F010456D2
:103CA0001109B9F0CF01855691096C0197FF03C046
:103CB00023E0C20ED11CD594C794D594C7946CE967
:103CC0007FEF0E94732DC60ED71E8FEFC81AD80A39
:103CD00002C0C12CD12C0D2C000CEE08FF082DE6E3
:103CE00031E0D8010E94C82DC60ED71EE81EF91E6D
:103CF0008B81082E000C990B8C01015011092D812C
:103D000022302CF4222379F1015E1F4F2CC0CF0109
:103D10008459984F0E94F21EE82FF0E0FB96E00FC6
:103D2000F11F8D81082E000C990B029785309105AB
:103D300014F0E756FF4F65E070E00E94732D9C0180
:103D400097FF02C02F5F3F4F359527959DE3929FC8
:103D5000A001939F500D11248F01040F151F80FFA8
:103D600002C0015E1F4FA801110F660B770B9A016D
:103D7000AB012C0D3D1D4E1D5F1D60E871E581E01E
:103D800090E00E944F2D6B017C01AA810A2E000C4D
:103D9000BB0B20E13EE00E94C82D4B015C01A981D4
:103DA0000A2E000CBB0B2CE330E00E94C82DDC0176
:103DB000CB01880D991DAA1DBB1D4881042E000C46
:103DC000550B660B770B840F951FA61FB71FBC0101
:103DD000CD016C0D7D1D8E1D9F1DCDB7DEB7ECE0B6
:103DE0000C94FC2D9C0123703327232B59F464E69B
:103DF00070E00E94732D892B39F46370772781E07E
:103E0000672B19F080E0089581E00895CF93DF9348
:103E1000CDB7DEB7A4970FB6F894DEBF0FBECDBF07
:103E2000789484B5826084BD84B5816084BD85B595
:103E3000826085BD85B5816085BD80916E008160A1
:103E400080936E0010928100809181008260809347
:103E50008100809181008160809381008091800049
:103E60008160809380008091B10084608093B10074
:103E70008091B00081608093B00080917A0084606E
:103E800080937A0080917A00826080937A0080919A
:103E90007A00816080937A0080917A0080688093B4
:103EA0007A001092C10088E0E0ECF1E0DE011196AA
:103EB00001900D928A95E1F7E091C205F091C3055A
:103EC00082E08083E091BE05F091BF051082E09111
:103ED000C005F091C10584E480831092CA05E09189
:103EE000C605F091C70586E08083E091C405F09196
:103EF000C505808180618083E091C405F091C5058E
:103F0000808188608083E091C405F091C50580813F
:103F100080688083E091C405F091C50580818F7D24
:103F2000808361E08DE00E948C1061E08CE00E9453
:103F30008C1060E088E00E948C1061E088E00E94B4
:103F40005C1060E08CE00E945C108AE397E00E94C5
:103F500034111092100265E1C62E60E1D62E73E096
:103F6000272E312CEBEF4E2EE2E15E2EF0E06F2E8D
:103F7000F1E07F2EA3E2AA2EA1E0BA2EB7E18B2EAC
:103F8000B1E09B2E82E090E00E94392D90E5980FE1
:103F9000903208F088EB80931C0210911C02110FE4
:103FA00080918807811107C081E08093880783E4AE
:103FB00097E00E94691460914707709148071AA31F
:103FC0009E012E5D3F4F4FE083E497E00E94F71281
:103FD00020914307309144078091490790914A0707
:103FE0002435310551F4815A9940B1F081EA99E0C4
:103FF00090934A078093490709C08153914061F02B
:1040000021E331E030934A07209349070E94C81BFF
:10401000D0925D07C0925C0781E080935E070E94AA
:10402000C81B80915007803331F48FEF809369076C
:1040300080936A070BC0883221F0823021F081E042
:1040400003C08FEF01C083E0809369078EE090E1A9
:1040500090935D0780935C0780916207082E000CA7
:10406000990B9093950580939405809145079091C5
:10407000460790937A058093790580914307909144
:10408000440790939705809396051092930510929C
:1040900092050E947B0F00E010E08091880781115B
:1040A00007C091E09093880783E497E00E94691429
:1040B00080914707909148070E94601B80914507B7
:1040C00090914607B1010E945F2DE0904307F09068
:1040D0004407F694E794CE0101966BA37CA30E945B
:1040E000581C96958795AE014F5F5F4F6BA17CA1E1
:1040F000F701E81BF90BCF010E94871B0E941E1CD1
:104100008111DCCF64EF71E080E090E00E94FA1052
:10411000809147079091480700FF11C0F1E080307F
:104120009F0741F09093030180930201709248072A
:104130006092470750920101409200010BC08050ED
:10414000914061F48091020190910301909348079E
:104150008093470783E497E00E942B140F5F1F4F63
:104160000530110509F099CFB0928705A092860518
:104170009092890580928805109281050E94071C03
:1041800089EB91E090938D0580938C058EE995E005
:1041900090938F0580938E050E94081660ED77E05E
:1041A00080E090E00E94FA1088E00E94500A892B7B
:1041B000E9F480911C028F5F803D08F080EB8093D2
:1041C0001C0260911C0282E090E00E94412D8091CF
:1041D0001C0240E167EA74E090E00E94042D87EA47
:1041E00094E090938B0580938A05CCCE109280004A
:1041F00010928100109285001092840088E09DE367
:1042000090938900809388008091810088608093DA
:1042100081008091810085608093810080916F0092
:10422000826080936F008BE091E090938B05809388
:104230008A050E940816552453942EE1822E912C53
:1042400036E0432E82EB95E00E942A098F3FD9F198
:1042500020911D0230911E028A3019F08D3021F01C
:104260000EC02115310571F3F901EC52FC4F10829B
:1042700010921E0210921D020E949317E3CFA90113
:104280004F5F5F4F50931E0240931D02F901EC52A5
:10429000FC4F8083423D5105A8F28EEA90E00E94D7
:1042A00073198DEB91E00E949419E0911D02F09139
:1042B0001E02EC52FC4F10820E94931710921E02B5
:1042C00010921D02BFCF8091570681112EC08091A0
:1042D0002907853009F09FC080914F060E94500A3F
:1042E000892B09F498C08FB7F894C0902507D09017
:1042F0002607E0902707F09028078FBF0E94D5106F
:10430000AB01BC014C195D096E097F098091510612
:1043100090915206A0E0B0E084179507A607B70772
:1043200008F079C083E00E940B120E94A6198AE26D
:1043300097E00E94F30C80912F0790913007A09195
:104340003107B09132078F3F9105EFEEAE07E0E104
:10435000BE0761F108F0FDC08D3A22E592072FEF0C
:10436000A207B10509F407C108F097C18D3DE2E24B
:104370009E07EFEFAE07B10509F420C1D8F0873CE6
:10438000F8E39F07FFEFAF07B10509F471C108F427
:1043900071C18D3BE2E49E07EFEFAE07B10509F472
:1043A00077C1853B9A44AF4FB10589F580E30E9400
:1043B000D50E2DC08F3E20E192072FEFA207B10549
:1043C00009F41DC1873E38E193073FEFA307B1050C
:1043D00009F42BC18D3F9240AF4FB105C1F48091DC
:1043E0001002882309F423C189EF90E00E94731919
:1043F00080E192E00E94941985EF90E00E94731989
:1044000080911F02852580931F02109210028AE37B
:1044100097E00E94341180911A0290911B02892B1F
:1044200009F494C010921B0210921A028091A60403
:10443000882321F01092A6040E9408168DE00E94A5
:10444000500A61E0892B09F060E08DE00E945C1069
:1044500080912002909121029C012F5F3F4F309369
:10446000210220932002B4010E945F2D892BC9F400
:10447000809106018823A9F086E291E00E947319D9
:1044800019A281E388A3CE0180960E94941982E24A
:1044900091E00E94731988E191E00E9473191092D3
:1044A000060184E1E82E82E0F82E0BE715E096E89D
:1044B000A92E95E0B92EC12CD12CF701808188233B
:1044C00039F0843011F4F80110828150F70128C0CE
:1044D000C114D10491F481E895E00E94581C3C017C
:1044E00020917B058091860590918705820F911D13
:1044F0000E94581C860D971D09C0F8012081F50106
:1045000080819181820F911D0E94581C20919605F7
:10451000309197052817390728F4F80180818F5FBB
:10452000808302C0F7014082FFEFCF1ADF0A2FEF2E
:10453000E21AF20A0F5F1F4F32E0A30EB11C86E0B1
:10454000C816D10409F0B9CF5092A6040E94EC0914
:1045500079CE8F37E0E89E07EFEEAE07E0E1BE07C9
:1045600009F4BEC078F08734E8EB9E07EFEEAE07A3
:10457000E0E1BE0741F51092100287EB90E00E9447
:10458000731945CF8F3B20E492072FEEA20720E15D
:10459000B20709F4C8C008F454C0873B38E4930755
:1045A0003FEEA30730E1B30709F48EC008F0D1C095
:1045B0008D3B9244AF4EB04109F029CF10921002CA
:1045C00084E091E0DCCF8834F8EB9F07FFEEAF0783
:1045D000F0E1BF07B0F0873338EC93073FEEA30755
:1045E00030E1B30709F48DC008F4D0C08F3120EE5C
:1045F00092072FEEA20720E1B20709F043C087E33C
:10460000D6CE8F3620E992072FEEA20720E1B2071F
:1046100009F46EC008F4ADC08F35F0EA9F07FFEED5
:10462000AF07F0E1BF0709F0AAC085E3C0CE8091D3
:104630001F02882319F08AEE90E0E0CE80EE90E031
:10464000DDCE8F3DE0E29E07EFEEAE07E0E1BE0774
:10465000B9F0873DF8E29F07FFEEAF07F0E1BF0733
:1046600009F472C08F3E9041AF4EB04109F0CFCEF9
:1046700088E39DCE8F3C9043AF4FB10509F0C7CE84
:1046800084E395CE8731984EAF4EB04109F0BFCE4E
:104690001092100282EC90E072CF85382AE79207E0
:1046A0002FEFA207B10511F486E381CE86383AE7F1
:1046B00093073FEFA307B105E8F48D39E2E69E07C3
:1046C000EFEFAE07B10529F4109210028EE091E0F1
:1046D00056CF8739F8E69F07FFEFAF07B10511F412
:1046E00081E365CE853A9A45AF4FB10509F08FCE8B
:1046F00089E35DCE873538EA93073FEFA307B1051D
:1047000029F4109210028CEC90E039CF8835E8EA59
:104710009E07EFEFAE07B10540F487369849AF4FDB
:10472000B10509F074CE82E342CE8F3420EB9207BC
:104730002FEFA207B10511F483E339CE8D33924CEC
:10474000AF4FB10509F063CE1092100286ED90E0F4
:1047500016CF8F3920E692072FEEA20720E1B2078D
:1047600009F4A2CF87389847AF4EB04109F437CE4D
:104770004ECE8D379248AF4EB04131F348CE87359B
:10478000984AAF4EB04109F419CF41CE8F33904CC7
:10479000AF4EB04189F23BCEFB0120813181FC015B
:1047A00031832083FB0142815381F90136972081B7
:1047B0003181FC01E20FF31F518340830895FB0117
:1047C00020813181FC0131832083FB0142815381AF
:1047D000F901369720813181FC01E20FF31F5183EB
:1047E00040830895CF93DF93EC0181E691E09B83B2
:1047F0008A831092560689E596E09093230780936A
:1048000022071C861C821D821E821F8218861A8621
:1048100019861B8669E871E0CE010E94DF236DE8EE
:1048200071E0CE010E960E94CC238DE691E0998333
:10483000888385E791E09B838A838FE791E09F8758
:104840008E87DF91CF9108951092B5051092B4052F
:1048500088EE93E0A0E0B0E08093B6059093B705B2
:10486000A093B805B093B90585E991E09093B3059D
:104870008093B20585EC90E09093BF058093BE05D0
:1048800084EC90E09093C1058093C00580EC90E0AB
:104890009093C3058093C20581EC90E09093C50589
:1048A0008093C40582EC90E09093C7058093C60581
:1048B00086EC90E09093C9058093C8051092CB05D3
:1048C0001092CC051092CD051092CE0510924207A1
:1048D000109241078DEA91E09093400780933F0743
:1048E000109285071092840710928707109286070E
:1048F0001092880710924A071092490710924C07AD
:1049000010924B0710924E0781E080934D0782E290
:1049100080934F071092560710925507ECE6F7E088
:104920009FEF8EE08E0F91938E13FDCF81E08093E9
:10493000690725E130E130935D0720935C078093A0
:104940005E0710925F071092600780E48093610712
:10495000109262078FEE9FE090937B0780937A0717
:1049600089E391E090934807809347071092770777
:1049700083E497E00E94691485EB91E090934007EF
:1049800080933F0785EA91E090933B0780933A0735
:104990001092560689E596E09093230780932207AC
:1049A0001092500688E79EE190935206809351063C
:1049B0008CE990E0909354068093530682E390E054
:1049C00090933D0780933C0710925706109255062E
:1049D00084E08093290710923E0782E080934F067F
:1049E00089E098E00E94F2238AE297E00C94F22397
:1049F0000F93083090F0982F872F762F652F542F24
:104A0000432F322F22270850F4CF220F331F441F89
:104A1000551F661F771F881F991F0A95B2F70F91C0
:104A2000089597FB10F8169400080F93083098F03B
:104A30000850232F342F452F562F672F782F892F7B
:104A4000902DF4CF05949795879577956795579511
:104A50004795379527950A95AAF70F910895EE0F78
:104A6000FF1F0590F491E02D09945058BB27AA2709
:104A70000E944D250C9425260E94172638F00E948E
:104A80001E2620F039F49F3F19F426F40C941426C6
:104A90000EF4E095E7FB0C940E26E92F0E943626D3
:104AA00058F3BA17620773078407950720F079F463
:104AB000A6F50C9458260EF4E0950B2EBA2FA02DD7
:104AC0000B01B90190010C01CA01A0011124FF27BB
:104AD000591B99F0593F50F4503E68F11A16F040B6
:104AE000A22F232F342F4427585FF3CF46953795B5
:104AF0002795A795F0405395C9F77EF41F16BA0B7A
:104B0000620B730B840BBAF09150A1F0FF0FBB1F27
:104B1000661F771F881FC2F70EC0BA0F621F731F70
:104B2000841F48F4879577956795B795F7959E3FCD
:104B300008F0B0CF9395880F08F09927EE0F97955E
:104B4000879508950E943E2688F09F5798F0B92FC8
:104B50009927B751B0F0E1F0660F771F881F991FB2
:104B60001AF0BA95C9F714C0B13091F00E945826D6
:104B7000B1E008950C945826672F782F8827B85FE6
:104B800039F0B93FCCF3869577956795B395D9F70A
:104B90003EF490958095709561957F4F8F4F9F4F14
:104BA0000895E89409C097FB3EF490958095709520
:104BB00061957F4F8F4F9F4F9923A9F0F92F96E969
:104BC000BB279395F695879577956795B795F111DE
:104BD000F8CFFAF4BB0F11F460FF1BC06F5F7F4F7B
:104BE0008F4F9F4F16C0882311F096E911C077238D
:104BF00021F09EE8872F762F05C0662371F096E896
:104C0000862F70E060E02AF09A95660F771F881F64
:104C1000DAF7880F9695879597F9089597F99F6722
:104C200080E870E060E008959FEF80EC0895002434
:104C30000A941616170618060906089500240A9401
:104C400012161306140605060895092E0394000C87
:104C500011F4882352F0BB0F40F4BF2B11F460FF16
:104C600004C06F5F7F4F8F4F9F4F089557FD90583F
:104C7000440F551F59F05F3F71F04795880F97FB20
:104C8000991F61F09F3F79F08795089512161306DA
:104C90001406551FF2CF4695F1DF08C01616170609
:104CA0001806991FF1CF869571056105089408953E
:104CB000E894BB2766277727CB0197F908950E94D0
:104CC00072260C9425260E94172638F00E941E2674
:104CD00020F0952311F00C940E260C941426112428
:104CE0000C9459260E94362670F3959FC1F3950FB8
:104CF00050E0551F629FF001729FBB27F00DB11D60
:104D0000639FAA27F00DB11DAA1F649F6627B00DEF
:104D1000A11D661F829F2227B00DA11D621F739FD8
:104D2000B00DA11D621F839FA00D611D221F749FE6
:104D30003327A00D611D231F849F600D211D822F2D
:104D4000762F6A2F11249F5750409AF0F1F0882354
:104D50004AF0EE0FFF1FBB1F661F771F881F915081
:104D60005040A9F79E3F510580F00C940E260C94FC
:104D700059265F3FE4F3983ED4F38695779567957F
:104D8000B795F795E7959F5FC1F7FE2B880F911DAB
:104D90009695879597F9089581E090E0F8940C94A2
:104DA000202EFB01DC0102C001900D9241505040C9
:104DB000D8F70895FC018191861721F08823D9F74F
:104DC000992708953197CF010895FB01DC018D915A
:104DD000019080190110D9F3990B0895FB01DC01B2
:104DE00001900D920020E1F70895FB01DC01415094
:104DF000504048F001900D920020C9F701C01D926B
:104E000041505040E0F70895FB0151915523A9F01E
:104E1000BF01DC014D9145174111E1F759F4CD0176
:104E20000190002049F04D9140154111C9F3FB015B
:104E30004111EFCF81E090E001970895AEE0B0E03E
:104E4000E4E2F7E20C94E82D0D891E8986E08C835C
:104E50001A8309838FEF9FE79E838D83AE01475EA0
:104E60005F4F6F89788DCE0101960E945A272F815E
:104E70003885F801E20FF31F10822E96E4E00C94BF
:104E8000042EAEE0B0E0E7E4F7E20C94EA2D85E012
:104E90008C838B899C899A838983AE01495E5F4F9D
:104EA0006D897E89CE0101960E94AC2A2E96E2E0A1
:104EB0000C94062EACE0B0E0E0E6F7E20C94DA2DBC
:104EC0007C016B018A01FC0117821682838181FFBC
:104ED000BDC1CE0101964C01F7019381F60193FD0E
:104EE000859193FF81916F01882309F4ABC18532CD
:104EF00039F493FD859193FF81916F01853229F4F7
:104F0000B70190E00E94422CE7CF512C312C20E0D9
:104F10002032A0F48B3269F030F4803259F08332C1
:104F200069F420612CC08D3239F0803339F421606E
:104F300026C02260246023C0286021C027FD27C02E
:104F400030ED380F3A3078F426FF06C0FAE05F9E65
:104F5000300D1124532E13C08AE0389E300D1124D9
:104F6000332E20620CC08E3221F426FD6BC12064EA
:104F700006C08C3611F4206802C0883641F4F60170
:104F800093FD859193FF81916F018111C1CF982F7E
:104F90009F7D9554933028F40C5F1F4FFFE3F983F6
:104FA0000DC0833631F0833771F0833509F05BC073
:104FB00022C0F801808189830E5F1F4F44244394EF
:104FC000512C540115C03801F2E06F0E711CF8012C
:104FD000A080B18026FF03C0652D70E002C06FEF96
:104FE0007FEFC5012C870E94F92B2C0183012C85B2
:104FF0002F77222E17C03801F2E06F0E711CF801D6
:10500000A080B18026FF03C0652D70E002C06FEF65
:105010007FEFC5012C870E94EE2B2C012C85206888
:10502000222E830123FC1BC0832D90E048165906D5
:10503000B0F4B70180E290E00E94422C3A94F4CFA1
:10504000F50127FC859127FE81915F01B70190E072
:105050000E94422C31103A94F1E04F1A5108411449
:10506000510471F7E5C0843611F0893639F5F8013D
:1050700027FF07C060817181828193810C5F1F4F80
:1050800008C060817181072E000C880B990B0E5FA0
:105090001F4F2F76722E97FF09C0909580957095BF
:1050A00061957F4F8F4F9F4F2068722E2AE030E02E
:1050B000A4010E94932CA82EA81844C0853729F477
:1050C0002F7EB22E2AE030E025C0F22FF97FBF2ECE
:1050D0008F36C1F018F4883579F0B4C0803719F0F4
:1050E000883721F0AFC02F2F2061B22EB4FE0DC043
:1050F0008B2D8460B82E09C024FF0AC09F2F9660B4
:10510000B92E06C028E030E005C020E130E002C042
:1051100020E132E0F801B7FE07C060817181828131
:1051200093810C5F1F4F06C06081718180E090E029
:105130000E5F1F4FA4010E94932CA82EA818FB2DD0
:10514000FF777F2E76FE0BC0372D3E7FA51450F4DF
:1051500074FE0AC072FC08C0372D3E7E05C0BA2C12
:10516000372D03C0BA2C01C0B52C34FF0DC0FE0191
:10517000EA0DF11D8081803311F4397E09C032FFC0
:1051800006C0B394B39404C0832F867809F0B39417
:1051900033FD13C030FF06C05A2CB31418F4530C5F
:1051A0005B18B32CB31468F4B70180E290E03C873D
:1051B0000E94422CB3943C85F5CFB31410F43B18F5
:1051C00001C0312C34FF12C0B70180E390E03C876E
:1051D0000E94422C3C8532FF17C031FD03C088E796
:1051E00090E002C088E590E0B7010CC0832F86787C
:1051F00059F031FF02C08BE201C080E237FD8DE241
:10520000B70190E00E94422CA51438F4B70180E366
:1052100090E00E94422C5A94F7CFAA94F401EA0D30
:10522000F11D8081B70190E00E94422CA110F5CFC2
:10523000332009F451CEB70180E290E00E94422C65
:105240003A94F6CFF7018681978102C08FEF9FEFE6
:105250002C96E2E10C94F62D20FD09C0FC0123FD03
:1052600005C022FF02C07383628351834083089587
:1052700044FD10C046FD10C0DB01FC01AA0FBB1F9E
:10528000EE1FFF1F1094D1F76A0F7B1F8E1F9F1F09
:1052900031E003C033E001C034E0660F771F881FA0
:1052A000991F3150D1F7620F711D811D911D089515
:1052B0000F931F93CF93DF938C01C8010E94042C9E
:1052C000EC0197FD08C00E94DA2B892BB1F7B801D9
:1052D000CE010E947A2CCE01DF91CF911F910F91C8
:1052E0000895A1E0B0E0E7E7F9E20C94E02D8C012D
:1052F000C62E7A0129830E94042CAC0155272981EE
:105300004B32510521F04D32510569F42068CA94A1
:10531000C11002C080E076C0C80129830E94042C1D
:10532000298197FDF7CF322F3D7FD32E322F307357
:1053300049F5803339F5BB24BA94BC0C09F44EC04E
:10534000C80129830E94042C298197FD47C0382F6A
:105350003F7D383569F48D2D8264D82ECA94CA9465
:10536000CC20E1F1C8010E94042C97FF0BC036C08D
:1053700026FF04C02D2D2260D22E03C03D2D3261A8
:10538000D32ECB2C812C912C540120ED280F2830CA
:1053900080F0D4FE04C0B8010E947A2C1CC02A30D0
:1053A00040F0D6FEF8CF2F7D3FEE320F363098F723
:1053B00027504D2DC501B4010E9438294B015C01D5
:1053C0008D2D8260D82ECA94CC2059F0C8010E943D
:1053D000042C97FFDACFD1FC04C09CCF812C912CF8
:1053E0005401D7FE08C0B094A09490948094811C7E
:1053F000911CA11CB11C2D2DB501A401C7010E9457
:105400002C2981E02196ECE00C94FC2DA1E2B0E087
:10541000ECE0FAE20C94DE2D5C017A01CE010196FB
:105420006C0180E2F60111928A95E9F7F50183801B
:1054300040E050E0912C712C70E0A1E0B0E0F90167
:1054400083FC859183FE81918F01982F9F018111AB
:1054500003C080E090E07CC08E3519F44115510501
:1054600049F1E72FF0E0E417F5073CF48D3559F1E9
:105470008D3219F4772001F103C0711001C0982E0C
:10548000892F8695869586958601080F111D892F8F
:1054900087703D0101C0660C8A95EAF7F8018081AA
:1054A00086298083991559F0991510F49F5FE8CFEC
:1054B0009150E6CF71E004C07724739401C0712C41
:1054C0004F5F5F4FBCCF772019F08E8180628E8353
:1054D000711103C09924939416C0F6019E012F5DAB
:1054E0003F4F808180958193E217F307D1F7F2CF88
:1054F000E114F10429F0F7018083C70101967C01D2
:105500006150912CF9F0C50169A30E94042C69A196
:1055100097FD16C0282F269526952695F601E20FB1
:10552000F11D208130E0AC014770552702C0359550
:1055300027954A95E2F720FDDBCFB5010E947A2C32
:10554000911087CFE114F10411F0F7011082C80126
:10555000A196EEE00C94FA2D4F925F927F928F927B
:105560009F92AF92BF92CF92DF92EF92FF920F93F2
:105570001F93CF93DF931F92CDB7DEB76C012B0142
:105580005A01FC0117821682712CF601F380F20198
:10559000F3FC8591F3FE8191382F2F01882309F4C4
:1055A000F3C090E039830E94DA2B3981892B21F0F6
:1055B000C6010E945829E9CF353241F4F201F3FCCB
:1055C0003591F3FE31912F01353269F4C6013983EB
:1055D0000E94042C398197FDD5C03817B1F2B6016D
:1055E0000E947A2CD1C03A3239F4F3FC3591F3FEA3
:1055F00031912F0151E001C050E0420110E020ED57
:10560000230F2A3090F45260612F70E080E090E028
:1056100040E259830E943829162FF401F3FC35919A
:10562000F3FE31914F015981EACF052F232F240139
:1056300051FF03C0111102C0A7C01FEF383619F087
:105640003C3659F011C0F401F3FC2591F3FE219191
:105650002F01283649F4052F08600460F201F3FC9D
:105660002591F3FE21912F01222309F48DC0622F91
:1056700070E08CE991E129830E94E32B2981892B39
:1056800009F482C000FD07C0F501E080F180C5018A
:1056900002965C0102C0E12CF12C2E3651F4F60189
:1056A0004681578160E070E0202FC7010E942C29BD
:1056B0006CCF233691F401FF11E0C6010E94042C47
:1056C00097FD60C0E114F10429F0F7018083C70160
:1056D00001967C01115089F751C02B3559F4920184
:1056E000A701612FC6010E94062A2C01892B09F00F
:1056F00045C03FC0C60129830E945829298197FDD2
:1057000041C02F3659F128F4243631F1293649F1B8
:1057100027C0233769F02537F9F022C0E114F104DE
:1057200029F0F7018082C70101967C01115071F0C8
:10573000C6010E94042C4C0197FD08C00E94DA2B80
:10574000892B61F3B601C4010E947A2CE114F104A3
:10575000A9F0F701108212C0006203C0006101C00D
:105760000064202FA701612FC6010E9471298111B9
:1057700005C0F6018381807329F406C000FD05CFC2
:10578000739403CF772019F0872D90E002C08FEF3C
:105790009FEF0F90DF91CF911F910F91FF90EF90AE
:1057A000DF90CF90BF90AF909F908F907F905F9051
:1057B0004F90089591110C94F12C803219F089507A
:1057C0008550C8F70895FC010590061621F00020C9
:1057D000D9F7C00108953197CF010895FC010590D4
:1057E000615070400110D8F7809590958E0F9F1FE3
:1057F0000895FC016150704001900110D8F7809528
:1058000090958E0F9F1F0895CF93DF93EC012B810E
:1058100020FF33C026FF0AC02F7B2B838E819F8100
:1058200001969F838E838A8190E029C022FF0FC05A
:10583000E881F9818081082E000C990B009719F4FA
:1058400020622B831AC03196F983E8830EC0EA8563
:10585000FB85099597FF09C02B81019611F080E225
:1058600001C080E1822B8B8308C02E813F812F5F96
:105870003F4F3F832E83992702C08FEF9FEFDF9129
:10588000CF9108950F931F93CF93DF93FB01238153
:1058900021FD03C08FEF9FEF28C022FF16C0468175
:1058A0005781248135814217530744F4A081B18187
:1058B0009D012F5F3F4F318320838C932681378159
:1058C0002F5F3F4F3783268310C0EB01092F182F1E
:1058D0000084F185E02D0995892BE1F68E819F8169
:1058E00001969F838E83812F902FDF91CF911F91FF
:1058F0000F910895FB01238120FF12C026FD10C0E7
:105900008F3F3FEF930761F082832F7D20642383D5
:1059100026813781215031093783268399270895BD
:105920008FEF9FEF0895FA01AA27283051F1203117
:1059300081F1E8946F936E7F6E5F7F4F8F4F9F4F23
:10594000AF4FB1E03ED0B4E03CD0670F781F891F65
:105950009A1FA11D680F791F8A1F911DA11D6A0F33
:10596000711D811D911DA11D20D009F468943F91E6
:105970002AE0269F11243019305D3193DEF6CF01E5
:105980000895462F4770405D4193B3E00FD0C9F7AB
:10599000F6CF462F4F70405D4A3318F0495D31FD18
:1059A0004052419302D0A9F7EACFB4E0A69597956B
:1059B000879577956795BA95C9F700976105710541
:1059C00008959B01AC010A2E06945795479537958B
:1059D0002795BA95C9F7620F731F841F951FA01DE5
:1059E0000895992788270895FB01DC018D91059082
:1059F00080190110D9F3990B0895FB01DC01059082
:105A00000D920020E1F70895BB274A3031F4992325
:105A100022F4BDE2909581959F4F0C94102DBB27E9
:105A2000FB015527AA27880F991FAA1FA41710F05A
:105A3000A41B83955051B9F7A05DAA3308F0A95D66
:105A4000A193009779F7B111B1931192CB010C9406
:105A5000292DDC01FC01672F71917723E1F7329743
:105A600004C07C916D9370836291AE17BF07C8F339
:105A70000895F999FECF92BD81BDF89A992780B516
:105A80000895262FF999FECF1FBA92BD81BD20BD82
:105A90000FB6F894FA9AF99A0FBE01960895DB01B1
:105AA0008F939F930E94CF2DBF91AF91A29F800DA6
:105AB000911DA39F900DB29F900D11240895AA1BD4
:105AC000BB1B51E107C0AA1FBB1FA617B70710F0E9
:105AD000A61BB70B881F991F5A95A9F7809590951B
